{
  "contractName": "ERC721",
  "abi": [
    {
      "constant": true,
      "inputs": [],
      "name": "name",
      "outputs": [
        {
          "name": "",
          "type": "string"
        }
      ],
      "payable": false,
      "stateMutability": "view",
      "type": "function"
    },
    {
      "constant": false,
      "inputs": [
        {
          "name": "_to",
          "type": "address"
        },
        {
          "name": "_tokenId",
          "type": "uint256"
        }
      ],
      "name": "approve",
      "outputs": [],
      "payable": false,
      "stateMutability": "nonpayable",
      "type": "function"
    },
    {
      "constant": true,
      "inputs": [],
      "name": "totalSupply",
      "outputs": [
        {
          "name": "",
          "type": "uint256"
        }
      ],
      "payable": false,
      "stateMutability": "view",
      "type": "function"
    },
    {
      "constant": true,
      "inputs": [
        {
          "name": "_owner",
          "type": "address"
        },
        {
          "name": "_index",
          "type": "uint256"
        }
      ],
      "name": "tokenOfOwnerByIndex",
      "outputs": [
        {
          "name": "tokenId",
          "type": "uint256"
        }
      ],
      "payable": false,
      "stateMutability": "view",
      "type": "function"
    },
    {
      "constant": true,
      "inputs": [
        {
          "name": "_tokenId",
          "type": "uint256"
        }
      ],
      "name": "ownerOf",
      "outputs": [
        {
          "name": "",
          "type": "address"
        }
      ],
      "payable": false,
      "stateMutability": "view",
      "type": "function"
    },
    {
      "constant": true,
      "inputs": [
        {
          "name": "_tokenId",
          "type": "uint256"
        }
      ],
      "name": "tokenMetadata",
      "outputs": [
        {
          "name": "infoUrl",
          "type": "string"
        }
      ],
      "payable": false,
      "stateMutability": "view",
      "type": "function"
    },
    {
      "constant": false,
      "inputs": [
        {
          "name": "quantity",
          "type": "uint256"
        }
      ],
      "name": "printMoney",
      "outputs": [],
      "payable": false,
      "stateMutability": "nonpayable",
      "type": "function"
    },
    {
      "constant": true,
      "inputs": [
        {
          "name": "_owner",
          "type": "address"
        }
      ],
      "name": "balanceOf",
      "outputs": [
        {
          "name": "",
          "type": "uint256"
        }
      ],
      "payable": false,
      "stateMutability": "view",
      "type": "function"
    },
    {
      "constant": true,
      "inputs": [],
      "name": "symbol",
      "outputs": [
        {
          "name": "",
          "type": "string"
        }
      ],
      "payable": false,
      "stateMutability": "view",
      "type": "function"
    },
    {
      "constant": false,
      "inputs": [
        {
          "name": "_to",
          "type": "address"
        },
        {
          "name": "_tokenId",
          "type": "uint256"
        }
      ],
      "name": "transfer",
      "outputs": [],
      "payable": false,
      "stateMutability": "nonpayable",
      "type": "function"
    },
    {
      "constant": false,
      "inputs": [
        {
          "name": "_tokenId",
          "type": "uint256"
        }
      ],
      "name": "takeOwnership",
      "outputs": [],
      "payable": false,
      "stateMutability": "nonpayable",
      "type": "function"
    },
    {
      "constant": false,
      "inputs": [
        {
          "name": "_tokenId",
          "type": "uint256"
        }
      ],
      "name": "burnMoney",
      "outputs": [],
      "payable": false,
      "stateMutability": "nonpayable",
      "type": "function"
    },
    {
      "inputs": [],
      "payable": false,
      "stateMutability": "nonpayable",
      "type": "constructor"
    },
    {
      "anonymous": false,
      "inputs": [
        {
          "indexed": true,
          "name": "_from",
          "type": "address"
        },
        {
          "indexed": true,
          "name": "_to",
          "type": "address"
        },
        {
          "indexed": false,
          "name": "_tokenId",
          "type": "uint256"
        }
      ],
      "name": "Transfer",
      "type": "event"
    },
    {
      "anonymous": false,
      "inputs": [
        {
          "indexed": true,
          "name": "_owner",
          "type": "address"
        },
        {
          "indexed": true,
          "name": "_approved",
          "type": "address"
        },
        {
          "indexed": false,
          "name": "_tokenId",
          "type": "uint256"
        }
      ],
      "name": "Approval",
      "type": "event"
    }
  ],
  "bytecode": "0x6060604052341561000f57600080fd5b336000806101000a81548173ffffffffffffffffffffffffffffffffffffffff021916908373ffffffffffffffffffffffffffffffffffffffff16021790555061057d8061005e6000396000f3006060604052600436106100ba576000357c0100000000000000000000000000000000000000000000000000000000900463ffffffff16806306fdde03146100bf578063095ea7b31461014d57806318160ddd1461018f5780632f745c59146101b85780636352211e1461020e5780636914db60146102715780636c3109dd1461030d57806370a082311461033057806395d89b411461037d578063a9059cbb1461040b578063b2e6ceeb1461044d578063fed69f0214610470575b600080fd5b34156100ca57600080fd5b6100d2610493565b6040518080602001828103825283818151815260200191508051906020019080838360005b838110156101125780820151818401526020810190506100f7565b50505050905090810190601f16801561013f5780820380516001836020036101000a031916815260200191505b509250505060405180910390f35b341561015857600080fd5b61018d600480803573ffffffffffffffffffffffffffffffffffffffff1690602001909190803590602001909190505061049e565b005b341561019a57600080fd5b6101a26104a2565b6040518082815260200191505060405180910390f35b34156101c357600080fd5b6101f8600480803573ffffffffffffffffffffffffffffffffffffffff169060200190919080359060200190919050506104a7565b6040518082815260200191505060405180910390f35b341561021957600080fd5b61022f60048080359060200190919050506104af565b604051808273ffffffffffffffffffffffffffffffffffffffff1673ffffffffffffffffffffffffffffffffffffffff16815260200191505060405180910390f35b341561027c57600080fd5b61029260048080359060200190919050506104b6565b6040518080602001828103825283818151815260200191508051906020019080838360005b838110156102d25780820151818401526020810190506102b7565b50505050905090810190601f1680156102ff5780820380516001836020036101000a031916815260200191505b509250505060405180910390f35b341561031857600080fd5b61032e60048080359060200190919050506104c3565b005b341561033b57600080fd5b610367600480803573ffffffffffffffffffffffffffffffffffffffff16906020019091905050610521565b6040518082815260200191505060405180910390f35b341561038857600080fd5b610390610528565b6040518080602001828103825283818151815260200191508051906020019080838360005b838110156103d05780820151818401526020810190506103b5565b50505050905090810190601f1680156103fd5780820380516001836020036101000a031916815260200191505b509250505060405180910390f35b341561041657600080fd5b61044b600480803573ffffffffffffffffffffffffffffffffffffffff16906020019091908035906020019091905050610533565b005b341561045857600080fd5b61046e6004808035906020019091905050610537565b005b341561047b57600080fd5b610491600480803590602001909190505061053a565b005b61049b61053d565b90565b5050565b600090565b600092915050565b6000919050565b6104be61053d565b919050565b6000809054906101000a900473ffffffffffffffffffffffffffffffffffffffff1673ffffffffffffffffffffffffffffffffffffffff163373ffffffffffffffffffffffffffffffffffffffff1614151561051e57600080fd5b50565b6000919050565b61053061053d565b90565b5050565b50565b50565b6020604051908101604052806000815250905600a165627a7a72305820708bd852047704e82098d75fbf23fd29200bbe572f08dc9f2b44f175c82f1ce60029",
  "source": "pragma solidity ^0.4.18;\nimport \"./IERC721.sol\";\n\ncontract ERC721 is IERC721{\n    address private owner;\n    // Events\n    event Transfer(address indexed _from, address indexed _to, uint256 _tokenId);\n    event Approval(address indexed _owner, address indexed _approved, uint256 _tokenId);\n\n    function ERC721() public{\n        owner = msg.sender;\n    }\n\n    function name()external view returns (string){\n\n    }\n\n    function symbol()external view returns (string){\n\n    }\n\n    function totalSupply()external view returns (uint256){\n\n    }\n\n    function balanceOf(address _owner)external view returns (uint){\n\n    }\n\n    function printMoney(uint256 quantity)external onlyMe{\n\n    }\n    // Functions that define ownership\n    function ownerOf(uint256 _tokenId)external view returns (address){\n\n    }\n\n    function approve(address _to, uint256 _tokenId)external{\n\n    }\n\n    function takeOwnership(uint256 _tokenId)external{\n\n    }\n\n    function transfer(address _to, uint256 _tokenId)external{\n\n    }\n\n    function tokenOfOwnerByIndex(address _owner, uint256 _index)external view returns (uint tokenId){\n\n    }\n\n    // Token metadata\n    function tokenMetadata(uint256 _tokenId) external view  returns (string infoUrl){\n        \n    }\n\n    function burnMoney(uint _tokenId) external{\n\n    }\n    modifier onlyMe(){\n        require(msg.sender == owner);\n        _;\n    }\n    modifier onlyMeAndUser(){\n        require(msg.sender == owner);\n        _;\n    }\n}",
  "sourcePath": "/Users/divum/ethindia/open-banking/contracts/ERC721.sol",
  "compiler": {
    "name": "solc",
    "version": "0.4.18+commit.9cf6e910.Emscripten.clang"
  },
  "schemaVersion": "1.0.1",
  "updatedAt": "2018-08-11T10:25:51.440Z"
}