{
  "contractName": "ERC721",
  "abi": [
    {
      "constant": true,
      "inputs": [],
      "name": "name",
      "outputs": [
        {
          "name": "",
          "type": "string"
        }
      ],
      "payable": false,
      "stateMutability": "view",
      "type": "function"
    },
    {
      "constant": false,
      "inputs": [
        {
          "name": "_to",
          "type": "address"
        },
        {
          "name": "_tokenId",
          "type": "uint256"
        }
      ],
      "name": "approve",
      "outputs": [],
      "payable": false,
      "stateMutability": "nonpayable",
      "type": "function"
    },
    {
      "constant": true,
      "inputs": [
        {
          "name": "_owner",
          "type": "address"
        }
      ],
      "name": "getNotes",
      "outputs": [
        {
          "name": "",
          "type": "uint256[]"
        },
        {
          "name": "",
          "type": "uint256[]"
        },
        {
          "name": "",
          "type": "address[]"
        }
      ],
      "payable": false,
      "stateMutability": "view",
      "type": "function"
    },
    {
      "constant": true,
      "inputs": [],
      "name": "totalSupply",
      "outputs": [
        {
          "name": "",
          "type": "uint256"
        }
      ],
      "payable": false,
      "stateMutability": "view",
      "type": "function"
    },
    {
      "constant": true,
      "inputs": [],
      "name": "getDenomination",
      "outputs": [
        {
          "name": "",
          "type": "uint256"
        }
      ],
      "payable": false,
      "stateMutability": "view",
      "type": "function"
    },
    {
      "constant": false,
      "inputs": [
        {
          "name": "_from",
          "type": "address"
        },
        {
          "name": "_to",
          "type": "address"
        },
        {
          "name": "_tokenId",
          "type": "uint256"
        }
      ],
      "name": "transferFrom",
      "outputs": [],
      "payable": false,
      "stateMutability": "nonpayable",
      "type": "function"
    },
    {
      "constant": true,
      "inputs": [
        {
          "name": "_owner",
          "type": "address"
        }
      ],
      "name": "getBurntNotes",
      "outputs": [
        {
          "name": "",
          "type": "uint256[]"
        },
        {
          "name": "",
          "type": "uint256[]"
        },
        {
          "name": "",
          "type": "address[]"
        }
      ],
      "payable": false,
      "stateMutability": "view",
      "type": "function"
    },
    {
      "constant": false,
      "inputs": [
        {
          "name": "_to",
          "type": "address"
        },
        {
          "name": "_tokenId",
          "type": "uint256"
        }
      ],
      "name": "approveAndTransfer",
      "outputs": [],
      "payable": false,
      "stateMutability": "nonpayable",
      "type": "function"
    },
    {
      "constant": true,
      "inputs": [
        {
          "name": "_tokenId",
          "type": "uint256"
        }
      ],
      "name": "ownerOf",
      "outputs": [
        {
          "name": "",
          "type": "address"
        }
      ],
      "payable": false,
      "stateMutability": "view",
      "type": "function"
    },
    {
      "constant": false,
      "inputs": [
        {
          "name": "quantity",
          "type": "uint256"
        }
      ],
      "name": "printMoney",
      "outputs": [],
      "payable": false,
      "stateMutability": "nonpayable",
      "type": "function"
    },
    {
      "constant": true,
      "inputs": [
        {
          "name": "_owner",
          "type": "address"
        }
      ],
      "name": "balanceOf",
      "outputs": [
        {
          "name": "",
          "type": "uint256"
        }
      ],
      "payable": false,
      "stateMutability": "view",
      "type": "function"
    },
    {
      "constant": true,
      "inputs": [],
      "name": "symbol",
      "outputs": [
        {
          "name": "",
          "type": "string"
        }
      ],
      "payable": false,
      "stateMutability": "view",
      "type": "function"
    },
    {
      "constant": false,
      "inputs": [
        {
          "name": "_id",
          "type": "uint256"
        }
      ],
      "name": "isValidNote",
      "outputs": [
        {
          "name": "",
          "type": "bool"
        }
      ],
      "payable": false,
      "stateMutability": "nonpayable",
      "type": "function"
    },
    {
      "constant": false,
      "inputs": [
        {
          "name": "_to",
          "type": "address"
        },
        {
          "name": "_tokenId",
          "type": "uint256"
        }
      ],
      "name": "transfer",
      "outputs": [],
      "payable": false,
      "stateMutability": "nonpayable",
      "type": "function"
    },
    {
      "constant": false,
      "inputs": [
        {
          "name": "_tokenId",
          "type": "uint256"
        }
      ],
      "name": "takeOwnership",
      "outputs": [],
      "payable": false,
      "stateMutability": "nonpayable",
      "type": "function"
    },
    {
      "constant": false,
      "inputs": [
        {
          "name": "_tokenId",
          "type": "uint256"
        }
      ],
      "name": "burnMoney",
      "outputs": [],
      "payable": false,
      "stateMutability": "nonpayable",
      "type": "function"
    },
    {
      "inputs": [
        {
          "name": "_d",
          "type": "uint256"
        },
        {
          "name": "_rootContract",
          "type": "address"
        }
      ],
      "payable": false,
      "stateMutability": "nonpayable",
      "type": "constructor"
    },
    {
      "anonymous": false,
      "inputs": [
        {
          "indexed": true,
          "name": "_from",
          "type": "address"
        },
        {
          "indexed": true,
          "name": "_to",
          "type": "address"
        },
        {
          "indexed": false,
          "name": "_tokenId",
          "type": "uint256"
        }
      ],
      "name": "Transfer",
      "type": "event"
    },
    {
      "anonymous": false,
      "inputs": [
        {
          "indexed": true,
          "name": "_owner",
          "type": "address"
        },
        {
          "indexed": true,
          "name": "_approved",
          "type": "address"
        },
        {
          "indexed": false,
          "name": "_tokenId",
          "type": "uint256"
        }
      ],
      "name": "Approval",
      "type": "event"
    },
    {
      "anonymous": false,
      "inputs": [
        {
          "indexed": false,
          "name": "_contractAddr",
          "type": "address"
        },
        {
          "indexed": false,
          "name": "quantity",
          "type": "uint256"
        }
      ],
      "name": "Mint",
      "type": "event"
    }
  ],
  "bytecode": "0x6060604052341561000f57600080fd5b6040516040806113bd833981016040528080519190602001805160008054600160a060020a03928316600160a060020a031991821617909155600380543390931692909116919091179055505060015561134f8061006e6000396000f3006060604052600436106100cc5763ffffffff60e060020a60003504166306fdde0381146100d1578063095ea7b31461015b57806310a506901461017f57806318160ddd1461027c5780631fc601c9146102a157806323b872dd146102b4578063425d86d5146102dc578063542a4efc146102fb5780636352211e1461031d5780636c3109dd1461034f57806370a082311461036557806395d89b4114610384578063a6c47eb114610397578063a9059cbb146103c1578063b2e6ceeb146103e3578063fed69f02146103e3575b600080fd5b34156100dc57600080fd5b6100e46103f9565b60405160208082528190810183818151815260200191508051906020019080838360005b83811015610120578082015183820152602001610108565b50505050905090810190601f16801561014d5780820380516001836020036101000a031916815260200191505b509250505060405180910390f35b341561016657600080fd5b61017d600160a060020a0360043516602435610412565b005b341561018a57600080fd5b61019e600160a060020a0360043516610523565b60405180806020018060200180602001848103845287818151815260200191508051906020019060200280838360005b838110156101e65780820151838201526020016101ce565b50505050905001848103835286818151815260200191508051906020019060200280838360005b8381101561022557808201518382015260200161020d565b50505050905001848103825285818151815260200191508051906020019060200280838360005b8381101561026457808201518382015260200161024c565b50505050905001965050505050505060405180910390f35b341561028757600080fd5b61028f6107b2565b60405190815260200160405180910390f35b34156102ac57600080fd5b61028f6107b8565b34156102bf57600080fd5b61017d600160a060020a03600435811690602435166044356107be565b34156102e757600080fd5b61019e600160a060020a03600435166109b0565b341561030657600080fd5b61017d600160a060020a03600435166024356109cf565b341561032857600080fd5b610333600435610aa3565b604051600160a060020a03909116815260200160405180910390f35b341561035a57600080fd5b61017d600435610abe565b341561037057600080fd5b61028f600160a060020a0360043516610c67565b341561038f57600080fd5b6100e4610c82565b34156103a257600080fd5b6103ad600435610cc3565b604051901515815260200160405180910390f35b34156103cc57600080fd5b61017d600160a060020a0360043516602435610d41565b34156103ee57600080fd5b61017d600435610ef7565b610401611245565b61040c600154610efa565b90505b90565b60008181526004602052604090205433600160a060020a0390811691161461043957600080fd5b81600160a060020a031633600160a060020a03161415151561045a57600080fd5b60008181526004602052604090205433600160a060020a0390811691161480156104a65750600880548290811061048d57fe5b600091825260209091206003600490920201015460ff16155b1561051f5760008181526005602052604090819020805473ffffffffffffffffffffffffffffffffffffffff1916600160a060020a038581169182179092559133909116907f8c5be1e5ebec7d5bd14f71427d1e84f3dd0314c0f7b2291e5b200ac8c7c3b9259084905190815260200160405180910390a35b5050565b61052b611245565b610533611245565b61053b611245565b610543611245565b600061054d611245565b610555611245565b61055d611245565b6000610567611257565b600160a060020a038b1615156105cf57600a8054806020026020016040519081016040528092919081815260200182805480156105c357602002820191906000526020600020905b8154815260200190600101908083116105af575b50505050509650610646565b600660008c600160a060020a0316600160a060020a0316815260200190815260200160002080548060200260200160405190810160405280929190818152602001828054801561063e57602002820191906000526020600020905b81548152602001906001019080831161062a575b505050505096505b86519550856040518059106106585750595b90808252806020026020018201604052509450856040518059106106795750595b908082528060200260200182016040525093508560405180591061069a5750595b90808252806020026020018201604052509250600091505b858210156107a2576008600a838154811015156106cb57fe5b600091825260209091200154815481106106e157fe5b906000526020600020906004020160806040519081016040908152825482526001830154602083015260028301549082015260039091015460ff16151560608201529050805185838151811061073357fe5b60209081029091010152604081015184838151811061074e57fe5b6020908102909101810191909152600083815260049091526040902054600160a060020a031683838151811061078057fe5b600160a060020a039092166020928302909101909101526001909101906106b2565b5092999198509650945050505050565b60085490565b60015490565b80600030600160a060020a0316636352211e83836040516020015260405160e060020a63ffffffff84160281526004810191909152602401602060405180830381600087803b151561080f57600080fd5b6102c65a03f1151561082057600080fd5b50505060405180519050600160a060020a03161415151561084057600080fd5b60008281526005602052604090205433600160a060020a0390811691161461086757600080fd5b83600160a060020a031630600160a060020a0316636352211e8460006040516020015260405160e060020a63ffffffff84160281526004810191909152602401602060405180830381600087803b15156108c057600080fd5b6102c65a03f115156108d157600080fd5b50505060405180519050600160a060020a03161480156108f95750600160a060020a03841615155b151561090457600080fd5b600160a060020a038316151561091957600080fd5b61092484848461102e565b600084600160a060020a03167f8c5be1e5ebec7d5bd14f71427d1e84f3dd0314c0f7b2291e5b200ac8c7c3b9258460405190815260200160405180910390a382600160a060020a031684600160a060020a03167fddf252ad1be2c89b69c2b068fc378daa952ba7f163c4a11628f55a4df523b3ef8460405190815260200160405180910390a350505050565b6109b8611245565b6109c0611245565b6109c8611245565b9193909250565b30600160a060020a031663095ea7b3838360405160e060020a63ffffffff8516028152600160a060020a0390921660048301526024820152604401600060405180830381600087803b1515610a2357600080fd5b6102c65a03f11515610a3457600080fd5b50505030600160a060020a031663a9059cbb838360405160e060020a63ffffffff8516028152600160a060020a0390921660048301526024820152604401600060405180830381600087803b1515610a8b57600080fd5b6102c65a03f11515610a9c57600080fd5b5050505050565b600090815260046020526040902054600160a060020a031690565b6003546000908190819033600160a060020a03908116911614610ae057600080fd5b600092505b83831015610c1d57600854600a80549193509060018101610b068382611282565b5060009182526020808320919091018490558154600160a060020a031682526006905260409020805491508160018101610b408382611282565b5060009182526020808320919091018490558154848352600482526040808420805473ffffffffffffffffffffffffffffffffffffffff1916600160a060020a0390931692909217909155600790915290208190556008805460018101610ba783826112a6565b9160005260206000209060040201600060806040519081016040908152868252426020830181905290820152600060608201529190508151815560208201518160010155604082015181600201556060820151600391909101805460ff1916911515919091179055505060019290920191610ae5565b7f0f6798a560793a54c3bcfe86a93cde1e73087d944c0ea20544137d41213968853085604051600160a060020a03909216825260208201526040908101905180910390a150505050565b600160a060020a031660009081526006602052604090205490565b610c8a611245565b60408051908101604052600181527f24000000000000000000000000000000000000000000000000000000000000006020820152905090565b60008030600160a060020a0316636352211e84836040516020015260405160e060020a63ffffffff84160281526004810191909152602401602060405180830381600087803b1515610d1457600080fd5b6102c65a03f11515610d2557600080fd5b50505060405180519050600160a060020a031614159050919050565b80600030600160a060020a0316636352211e83836040516020015260405160e060020a63ffffffff84160281526004810191909152602401602060405180830381600087803b1515610d9257600080fd5b6102c65a03f11515610da357600080fd5b50505060405180519050600160a060020a031614151515610dc357600080fd5b33600160a060020a031630600160a060020a0316636352211e8460006040516020015260405160e060020a63ffffffff84160281526004810191909152602401602060405180830381600087803b1515610e1c57600080fd5b6102c65a03f11515610e2d57600080fd5b50505060405180519050600160a060020a0316141515610e4c57600080fd5b600160a060020a0383161515610e6157600080fd5b610e6c33848461102e565b600033600160a060020a03167f8c5be1e5ebec7d5bd14f71427d1e84f3dd0314c0f7b2291e5b200ac8c7c3b9258460405190815260200160405180910390a382600160a060020a031633600160a060020a03167fddf252ad1be2c89b69c2b068fc378daa952ba7f163c4a11628f55a4df523b3ef8460405190815260200160405180910390a3505050565b50565b610f02611245565b600080610f0d611245565b6000610f17611245565b861515610f595760408051908101604052600181527f300000000000000000000000000000000000000000000000000000000000000060208201529550611024565b8694505b8415610f7457600190930192600a85049450610f5d565b83604051805910610f825750595b818152601f19601f8301168101602001604052905092506001840391505b861561101d576000198201917f01000000000000000000000000000000000000000000000000000000000000006030600a8a06010290849081518110610fe257fe5b9060200101907effffffffffffffffffffffffffffffffffffffffffffffffffffffffffffff1916908160001a905350600a87049650610fa0565b8290508095505b5050505050919050565b6110378161105a565b6110418382611085565b61104b8183611179565b61105582826111b4565b505050565b6000908152600560205260409020805473ffffffffffffffffffffffffffffffffffffffff19169055565b600160a060020a0382166000818152600660208181526040808420805487865260078452918520549585529290915292919060001984018481106110c557fe5b6000918252602080832090910154600160a060020a03881683526006909152604090912080549192508291849081106110fa57fe5b6000918252602080832090910192909255828152600782526040808220859055600160a060020a03881682526006909252208054600019850190811061113c57fe5b60009182526020808320909101829055600160a060020a03871682526006905260409020805490611171906000198301611282565b505050505050565b600091825260046020526040909120805473ffffffffffffffffffffffffffffffffffffffff1916600160a060020a03909216919091179055565b600160a060020a03821660009081526006602052604081208054600181016111dc8382611282565b506000918252602080832091909101849055600160a060020a03338116835260069091526040808320549186168352909120805491925090600181016112228382611282565b506000918252602080832091909101849055928152600790925260409091205550565b60206040519081016040526000815290565b6080604051908101604052806000815260200160008152602001600081526020016000151581525090565b815481835581811511611055576000838152602090206110559181019083016112d2565b8154818355818115116110555760040281600402836000526020600020918201910161105591906112f0565b61040f91905b808211156112ec57600081556001016112d8565b5090565b61040f91905b808211156112ec57600080825560018201819055600282015560038101805460ff191690556004016112f65600a165627a7a7230582028d6b59aa00963585114d907c32f6a3bb9a66e781c5f01d70c4124c1fcc5e8930029",
  "source": "pragma solidity ^0.4.18;\n// import \"./IERC721.sol\";\n\ncontract ERC721{ //is IERC721{\n    address private owner;\n    uint256 private denomination;\n    uint256 private total;\n    address private rootContract;\n    struct Note{\n        uint256 id;\n        uint256 createdAt;\n        uint256 lastTrans;\n        bool isBurnt;\n    }\n    mapping(uint => address) internal tokenIdToOwner;\n    mapping(uint => address) internal tokenIdToApprovedAddress;\n\n    // Mapping from owner to list of owned token IDs\n    mapping(address => uint256[]) internal ownedTokens;\n\n    // Mapping from token ID to index of the owner tokens list\n    mapping(uint256 => uint256) internal ownedTokensIndex;\n\n    // Array with all token ids, used for enumeration\n    Note[] internal allTokens;\n\n    uint256[] burntNotes;\n    uint256[] liveNotes;\n    // Mapping from token id to position in the allTokens array\n    mapping(uint256 => uint256) internal allTokensIndex;\n    // Events\n    event Transfer(address indexed _from, address indexed _to, uint256 _tokenId);\n    event Approval(address indexed _owner, address indexed _approved, uint256 _tokenId);\n    event Mint(address _contractAddr, uint256 quantity);\n\n\n    function ERC721(uint256 _d, address _rootContract) public{\n        // owner = msg.sender;\n        // rootContract = _rootContract;\n        owner = _rootContract;\n        rootContract = msg.sender;\n        denomination = _d;\n\n    }\n\n    function name()external view returns (string){\n        return uint2str(denomination);\n    }\n    function getDenomination()external view returns (uint256){\n        return denomination;\n    }\n\n    function symbol()external view returns (string){\n        return \"$\";\n    }\n\n    function totalSupply()external view returns (uint256){\n        return allTokens.length;\n    }\n\n    function balanceOf(address _owner)external view returns (uint){\n        return ownedTokens[_owner].length;\n    }\n\n    function printMoney(uint256 quantity)public onlyMe{\n        for(uint index = 0; index<quantity; index++){\n            uint256 tokenIndex = allTokens.length;\n\n            liveNotes.push(tokenIndex);\n\n            uint256 ownedTokenIndex = ownedTokens[owner].length;\n            ownedTokens[owner].push(tokenIndex);\n            tokenIdToOwner[tokenIndex] = owner;\n            ownedTokensIndex[tokenIndex] = ownedTokenIndex;\n            // allTokensIndex[tokenIndex] = allTokens.length;\n            allTokens.push(Note(tokenIndex, block.timestamp, block.timestamp, false));\n\n        }\n        Mint(this, quantity);\n    }\n    // Functions that define ownership\n    function ownerOf(uint256 _tokenId)external view returns (address){\n        return tokenIdToOwner[_tokenId];\n    }\n\n    function approve(address _to, uint256 _tokenId)external{\n        require(msg.sender == tokenIdToOwner[_tokenId]);\n        require(msg.sender != _to);\n\n        if (tokenIdToOwner[_tokenId] == msg.sender && allTokens[_tokenId].isBurnt == false) {\n            tokenIdToApprovedAddress[_tokenId] = _to;\n            Approval(msg.sender, _to, _tokenId);\n        }\n    }\n\n    function transfer(address _to, uint _tokenId) external onlyValidToken(_tokenId){\n        require(this.ownerOf(_tokenId) == msg.sender);\n\n        require(_to != address(0));\n\n        _clearApprovalAndTransfer(msg.sender, _to, _tokenId);\n\n        Approval(msg.sender, 0, _tokenId);\n        Transfer(msg.sender, _to, _tokenId);\n    }\n\n    function approveAndTransfer(address _to, uint256 _tokenId) external{\n       this.approve(_to, _tokenId);\n       this.transfer(_to, _tokenId);\n    }\n    function transferFrom(address _from, address _to, uint _tokenId)public onlyValidToken(_tokenId){\n        require(tokenIdToApprovedAddress[_tokenId] == msg.sender);\n        require(this.ownerOf(_tokenId) == _from && _from != address(0));\n        require(_to != address(0));\n\n        _clearApprovalAndTransfer(_from, _to, _tokenId);\n\n        Approval(_from, 0, _tokenId);\n        Transfer(_from, _to, _tokenId);\n    }\n\n    function takeOwnership(uint256 _tokenId)external{\n\n    }\n\n    function _clearApprovalAndTransfer(address _from, address _to, uint _tokenId) internal{\n        _clearTokenApproval(_tokenId);\n        _removeTokenFromOwnersList(_from, _tokenId);\n        _setTokenOwner(_tokenId, _to);\n        _addTokenToOwnersList(_to, _tokenId);\n    }\n    function _clearTokenApproval(uint _tokenId)internal{\n        tokenIdToApprovedAddress[_tokenId] = address(0);\n    }\n\n    function _setTokenOwner(uint256 _tokenId, address _to) internal{\n        tokenIdToOwner[_tokenId] = _to;        \n    }\n\n    function _addTokenToOwnersList(address _to, uint _tokenId) internal{\n        ownedTokens[_to].push(_tokenId);\n        uint256 ownedTokenIndex = ownedTokens[msg.sender].length;\n        ownedTokens[_to].push(_tokenId);\n        ownedTokensIndex[_tokenId] = ownedTokenIndex;\n    }\n\n    function _removeTokenFromOwnersList(address _owner, uint _tokenId)internal{\n        uint length = ownedTokens[_owner].length;\n        uint index = ownedTokensIndex[_tokenId];\n        uint swapToken = ownedTokens[_owner][length - 1];\n\n        ownedTokens[_owner][index] = swapToken;\n        ownedTokensIndex[swapToken] = index;\n\n        delete ownedTokens[_owner][length - 1];\n        ownedTokens[_owner].length--;\n    }\n\n    function getNotes(address _owner)external view returns (uint256[], uint256[], address[]){\n        uint256[] memory tokenIds;\n\n        if(_owner == 0x0){\n            tokenIds = liveNotes;\n        }else{\n            tokenIds = ownedTokens[_owner];\n        }\n\n        uint256 len = tokenIds.length;\n\n        uint256[] memory _currencyId = new uint256[](len); \n        uint256[] memory _lastUsed = new uint256[](len);\n        address[] memory _owners = new address[](len);\n        for(uint256 index = 0; index<len; index++){\n            Note memory note = allTokens[liveNotes[index]];\n            _currencyId[index] = note.id;\n            _lastUsed[index] = note.lastTrans;\n            _owners[index] = tokenIdToOwner[index];\n        }\n        return (_currencyId, _lastUsed, _owners);\n    }\n\n    function getBurntNotes(address _owner)external view returns (uint256[],uint256[], address[]){\n        if(_owner == 0x0){\n            return;\n        }\n    }\n\n    function isValidNote(uint256 _id) public returns(bool){\n        return this.ownerOf(_id)!=address(0);\n    }\n    function burnMoney(uint _tokenId) external{\n\n    }\n    modifier onlyMe(){\n        require(msg.sender == rootContract);\n        _;\n    }\n    modifier onlyMeAndUser(){\n        require(msg.sender == owner);\n        _;\n    }\n    modifier onlyValidToken(uint _tokenId) {\n        require(this.ownerOf(_tokenId) != address(0));\n        _;\n    }\n    function bytes32ToString(bytes32 data) internal pure returns (string) {\n        bytes memory bytesString = new bytes(32);\n        for (uint j = 0; j<32; j++) {\n            byte char = byte(bytes32(uint(data) * 2 ** (8 * j)));\n            if (char != 0) {\n                bytesString[j] = char;\n            }\n        }\n        return string(bytesString);\n    }\n\n    function uint2str(uint i) internal pure returns (string){\n        if (i == 0)\n            return \"0\";\n        uint j = i;\n        uint length;\n        while (j != 0){\n            length++;\n            j /= 10;\n        }\n        bytes memory bstr = new bytes(length);\n        uint k = length - 1;\n        while (i != 0){\n            bstr[k--] = byte(48 + i % 10);\n            i /= 10;\n        }\n        string memory _name = string(bstr);\n        return _name;\n    }\n}",
  "sourcePath": "/Users/divum/ethindia/open-banking/contracts/ERC721.sol",
  "compiler": {
    "name": "solc",
    "version": "0.4.18+commit.9cf6e910.Emscripten.clang"
  },
  "schemaVersion": "1.0.1",
  "updatedAt": "2018-08-12T06:02:18.987Z"
}