{
  "contractName": "ERC721",
  "abi": [
    {
      "constant": true,
      "inputs": [],
      "name": "name",
      "outputs": [
        {
          "name": "",
          "type": "string"
        }
      ],
      "payable": false,
      "stateMutability": "view",
      "type": "function"
    },
    {
      "constant": false,
      "inputs": [
        {
          "name": "_to",
          "type": "address"
        },
        {
          "name": "_tokenId",
          "type": "uint256"
        }
      ],
      "name": "approve",
      "outputs": [],
      "payable": false,
      "stateMutability": "nonpayable",
      "type": "function"
    },
    {
      "constant": true,
      "inputs": [
        {
          "name": "_owner",
          "type": "address"
        }
      ],
      "name": "getNotes",
      "outputs": [
        {
          "name": "",
          "type": "uint256[]"
        },
        {
          "name": "",
          "type": "uint256[]"
        },
        {
          "name": "",
          "type": "address[]"
        }
      ],
      "payable": false,
      "stateMutability": "view",
      "type": "function"
    },
    {
      "constant": true,
      "inputs": [],
      "name": "totalSupply",
      "outputs": [
        {
          "name": "",
          "type": "uint256"
        }
      ],
      "payable": false,
      "stateMutability": "view",
      "type": "function"
    },
    {
      "constant": false,
      "inputs": [
        {
          "name": "_from",
          "type": "address"
        },
        {
          "name": "_to",
          "type": "address"
        },
        {
          "name": "_tokenId",
          "type": "uint256"
        }
      ],
      "name": "transferFrom",
      "outputs": [],
      "payable": false,
      "stateMutability": "nonpayable",
      "type": "function"
    },
    {
      "constant": true,
      "inputs": [
        {
          "name": "_owner",
          "type": "address"
        }
      ],
      "name": "getBurntNotes",
      "outputs": [
        {
          "name": "",
          "type": "uint256[]"
        },
        {
          "name": "",
          "type": "uint256[]"
        },
        {
          "name": "",
          "type": "address[]"
        }
      ],
      "payable": false,
      "stateMutability": "view",
      "type": "function"
    },
    {
      "constant": true,
      "inputs": [
        {
          "name": "_tokenId",
          "type": "uint256"
        }
      ],
      "name": "ownerOf",
      "outputs": [
        {
          "name": "",
          "type": "address"
        }
      ],
      "payable": false,
      "stateMutability": "view",
      "type": "function"
    },
    {
      "constant": false,
      "inputs": [
        {
          "name": "quantity",
          "type": "uint256"
        }
      ],
      "name": "printMoney",
      "outputs": [],
      "payable": false,
      "stateMutability": "nonpayable",
      "type": "function"
    },
    {
      "constant": true,
      "inputs": [
        {
          "name": "_owner",
          "type": "address"
        }
      ],
      "name": "balanceOf",
      "outputs": [
        {
          "name": "",
          "type": "uint256"
        }
      ],
      "payable": false,
      "stateMutability": "view",
      "type": "function"
    },
    {
      "constant": true,
      "inputs": [],
      "name": "symbol",
      "outputs": [
        {
          "name": "",
          "type": "string"
        }
      ],
      "payable": false,
      "stateMutability": "view",
      "type": "function"
    },
    {
      "constant": false,
      "inputs": [
        {
          "name": "_id",
          "type": "uint256"
        }
      ],
      "name": "isValidNote",
      "outputs": [
        {
          "name": "",
          "type": "bool"
        }
      ],
      "payable": false,
      "stateMutability": "nonpayable",
      "type": "function"
    },
    {
      "constant": false,
      "inputs": [
        {
          "name": "_to",
          "type": "address"
        },
        {
          "name": "_tokenId",
          "type": "uint256"
        }
      ],
      "name": "transfer",
      "outputs": [],
      "payable": false,
      "stateMutability": "nonpayable",
      "type": "function"
    },
    {
      "constant": false,
      "inputs": [
        {
          "name": "_tokenId",
          "type": "uint256"
        }
      ],
      "name": "takeOwnership",
      "outputs": [],
      "payable": false,
      "stateMutability": "nonpayable",
      "type": "function"
    },
    {
      "constant": false,
      "inputs": [
        {
          "name": "_tokenId",
          "type": "uint256"
        }
      ],
      "name": "burnMoney",
      "outputs": [],
      "payable": false,
      "stateMutability": "nonpayable",
      "type": "function"
    },
    {
      "inputs": [
        {
          "name": "_d",
          "type": "uint256"
        }
      ],
      "payable": false,
      "stateMutability": "nonpayable",
      "type": "constructor"
    },
    {
      "anonymous": false,
      "inputs": [
        {
          "indexed": true,
          "name": "_from",
          "type": "address"
        },
        {
          "indexed": true,
          "name": "_to",
          "type": "address"
        },
        {
          "indexed": false,
          "name": "_tokenId",
          "type": "uint256"
        }
      ],
      "name": "Transfer",
      "type": "event"
    },
    {
      "anonymous": false,
      "inputs": [
        {
          "indexed": true,
          "name": "_owner",
          "type": "address"
        },
        {
          "indexed": true,
          "name": "_approved",
          "type": "address"
        },
        {
          "indexed": false,
          "name": "_tokenId",
          "type": "uint256"
        }
      ],
      "name": "Approval",
      "type": "event"
    },
    {
      "anonymous": false,
      "inputs": [
        {
          "indexed": false,
          "name": "quantity",
          "type": "uint256"
        }
      ],
      "name": "Mint",
      "type": "event"
    }
  ],
  "bytecode": "0x6060604052341561000f57600080fd5b6040516020806112728339810160405280805160008054600160a060020a033316600160a060020a0319909116179055600155505061121f806100536000396000f3006060604052600436106100b65763ffffffff60e060020a60003504166306fdde0381146100bb578063095ea7b31461014557806310a506901461016957806318160ddd1461026657806323b872dd1461028b578063425d86d5146102b35780636352211e146102d25780636c3109dd1461030457806370a082311461031a57806395d89b4114610339578063a6c47eb11461034c578063a9059cbb14610376578063b2e6ceeb14610398578063fed69f0214610398575b600080fd5b34156100c657600080fd5b6100ce6103ae565b60405160208082528190810183818151815260200191508051906020019080838360005b8381101561010a5780820151838201526020016100f2565b50505050905090810190601f1680156101375780820380516001836020036101000a031916815260200191505b509250505060405180910390f35b341561015057600080fd5b610167600160a060020a03600435166024356103c7565b005b341561017457600080fd5b610188600160a060020a03600435166104d8565b60405180806020018060200180602001848103845287818151815260200191508051906020019060200280838360005b838110156101d05780820151838201526020016101b8565b50505050905001848103835286818151815260200191508051906020019060200280838360005b8381101561020f5780820151838201526020016101f7565b50505050905001848103825285818151815260200191508051906020019060200280838360005b8381101561024e578082015183820152602001610236565b50505050905001965050505050505060405180910390f35b341561027157600080fd5b610279610767565b60405190815260200160405180910390f35b341561029657600080fd5b610167600160a060020a036004358116906024351660443561076d565b34156102be57600080fd5b610188600160a060020a036004351661095f565b34156102dd57600080fd5b6102e860043561097e565b604051600160a060020a03909116815260200160405180910390f35b341561030f57600080fd5b610167600435610999565b341561032557600080fd5b610279600160a060020a0360043516610b37565b341561034457600080fd5b6100ce610b52565b341561035757600080fd5b610362600435610b93565b604051901515815260200160405180910390f35b341561038157600080fd5b610167600160a060020a0360043516602435610c11565b34156103a357600080fd5b610167600435610dc7565b6103b6611115565b6103c1600154610dca565b90505b90565b60008181526003602052604090205433600160a060020a039081169116146103ee57600080fd5b81600160a060020a031633600160a060020a03161415151561040f57600080fd5b60008181526003602052604090205433600160a060020a03908116911614801561045b5750600780548290811061044257fe5b600091825260209091206003600490920201015460ff16155b156104d45760008181526004602052604090819020805473ffffffffffffffffffffffffffffffffffffffff1916600160a060020a038581169182179092559133909116907f8c5be1e5ebec7d5bd14f71427d1e84f3dd0314c0f7b2291e5b200ac8c7c3b9259084905190815260200160405180910390a35b5050565b6104e0611115565b6104e8611115565b6104f0611115565b6104f8611115565b6000610502611115565b61050a611115565b610512611115565b600061051c611127565b600160a060020a038b16151561058457600980548060200260200160405190810160405280929190818152602001828054801561057857602002820191906000526020600020905b815481526020019060010190808311610564575b505050505096506105fb565b600560008c600160a060020a0316600160a060020a031681526020019081526020016000208054806020026020016040519081016040528092919081815260200182805480156105f357602002820191906000526020600020905b8154815260200190600101908083116105df575b505050505096505b865195508560405180591061060d5750595b908082528060200260200182016040525094508560405180591061062e5750595b908082528060200260200182016040525093508560405180591061064f5750595b90808252806020026020018201604052509250600091505b8582101561075757600760098381548110151561068057fe5b6000918252602090912001548154811061069657fe5b906000526020600020906004020160806040519081016040908152825482526001830154602083015260028301549082015260039091015460ff1615156060820152905080518583815181106106e857fe5b60209081029091010152604081015184838151811061070357fe5b6020908102909101810191909152600083815260039091526040902054600160a060020a031683838151811061073557fe5b600160a060020a03909216602092830290910190910152600190910190610667565b5092999198509650945050505050565b60075490565b80600030600160a060020a0316636352211e83836040516020015260405160e060020a63ffffffff84160281526004810191909152602401602060405180830381600087803b15156107be57600080fd5b6102c65a03f115156107cf57600080fd5b50505060405180519050600160a060020a0316141515156107ef57600080fd5b60008281526004602052604090205433600160a060020a0390811691161461081657600080fd5b83600160a060020a031630600160a060020a0316636352211e8460006040516020015260405160e060020a63ffffffff84160281526004810191909152602401602060405180830381600087803b151561086f57600080fd5b6102c65a03f1151561088057600080fd5b50505060405180519050600160a060020a03161480156108a85750600160a060020a03841615155b15156108b357600080fd5b600160a060020a03831615156108c857600080fd5b6108d3848484610efe565b600084600160a060020a03167f8c5be1e5ebec7d5bd14f71427d1e84f3dd0314c0f7b2291e5b200ac8c7c3b9258460405190815260200160405180910390a382600160a060020a031684600160a060020a03167fddf252ad1be2c89b69c2b068fc378daa952ba7f163c4a11628f55a4df523b3ef8460405190815260200160405180910390a350505050565b610967611115565b61096f611115565b610977611115565b9193909250565b600090815260036020526040902054600160a060020a031690565b600080548190819033600160a060020a039081169116146109b957600080fd5b600092505b83831015610afe5760078054925082600181016109db8382611152565b9160005260206000209060040201600060806040519081016040908152868252426020830181905290820152600060608201529190508151815560208201518160010155604082015181600201556060820151600391909101805460ff191691151591909117905550505033600160a060020a031660009081526005602052604090208054908160018101610a70838261117e565b506000918252602080832091909101849055838252600381526040808320805473ffffffffffffffffffffffffffffffffffffffff191633600160a060020a0316179055600690915290208190556009805460018101610ad0838261117e565b506000918252602080832091909101849055600754848352600a9091526040909120556001909201916109be565b7f07883703ed0e86588a40d76551c92f8a4b329e3bf19765e0e6749473c1a846658460405190815260200160405180910390a150505050565b600160a060020a031660009081526005602052604090205490565b610b5a611115565b60408051908101604052600181527f24000000000000000000000000000000000000000000000000000000000000006020820152905090565b60008030600160a060020a0316636352211e84836040516020015260405160e060020a63ffffffff84160281526004810191909152602401602060405180830381600087803b1515610be457600080fd5b6102c65a03f11515610bf557600080fd5b50505060405180519050600160a060020a031614159050919050565b80600030600160a060020a0316636352211e83836040516020015260405160e060020a63ffffffff84160281526004810191909152602401602060405180830381600087803b1515610c6257600080fd5b6102c65a03f11515610c7357600080fd5b50505060405180519050600160a060020a031614151515610c9357600080fd5b33600160a060020a031630600160a060020a0316636352211e8460006040516020015260405160e060020a63ffffffff84160281526004810191909152602401602060405180830381600087803b1515610cec57600080fd5b6102c65a03f11515610cfd57600080fd5b50505060405180519050600160a060020a0316141515610d1c57600080fd5b600160a060020a0383161515610d3157600080fd5b610d3c338484610efe565b600033600160a060020a03167f8c5be1e5ebec7d5bd14f71427d1e84f3dd0314c0f7b2291e5b200ac8c7c3b9258460405190815260200160405180910390a382600160a060020a031633600160a060020a03167fddf252ad1be2c89b69c2b068fc378daa952ba7f163c4a11628f55a4df523b3ef8460405190815260200160405180910390a3505050565b50565b610dd2611115565b600080610ddd611115565b6000610de7611115565b861515610e295760408051908101604052600181527f300000000000000000000000000000000000000000000000000000000000000060208201529550610ef4565b8694505b8415610e4457600190930192600a85049450610e2d565b83604051805910610e525750595b818152601f19601f8301168101602001604052905092506001840391505b8615610eed576000198201917f01000000000000000000000000000000000000000000000000000000000000006030600a8a06010290849081518110610eb257fe5b9060200101907effffffffffffffffffffffffffffffffffffffffffffffffffffffffffffff1916908160001a905350600a87049650610e70565b8290508095505b5050505050919050565b610f0781610f2a565b610f118382610f55565b610f1b8183611049565b610f258282611084565b505050565b6000908152600460205260409020805473ffffffffffffffffffffffffffffffffffffffff19169055565b600160a060020a038216600081815260056020818152604080842080548786526006845291852054958552929091529291906000198401848110610f9557fe5b6000918252602080832090910154600160a060020a0388168352600590915260409091208054919250829184908110610fca57fe5b6000918252602080832090910192909255828152600682526040808220859055600160a060020a03881682526005909252208054600019850190811061100c57fe5b60009182526020808320909101829055600160a060020a0387168252600590526040902080549061104190600019830161117e565b505050505050565b600091825260036020526040909120805473ffffffffffffffffffffffffffffffffffffffff1916600160a060020a03909216919091179055565b600160a060020a03821660009081526005602052604081208054600181016110ac838261117e565b506000918252602080832091909101849055600160a060020a03338116835260059091526040808320549186168352909120805491925090600181016110f2838261117e565b506000918252602080832091909101849055928152600690925260409091205550565b60206040519081016040526000815290565b6080604051908101604052806000815260200160008152602001600081526020016000151581525090565b815481835581811511610f2557600402816004028360005260206000209182019101610f2591906111a2565b815481835581811511610f2557600083815260209020610f259181019083016111d9565b6103c491905b808211156111d557600080825560018201819055600282015560038101805460ff191690556004016111a8565b5090565b6103c491905b808211156111d557600081556001016111df5600a165627a7a7230582024ac619c149f052915febee1cd41737887282f9b2659362e8ba345f2a6405f890029",
  "source": "pragma solidity ^0.4.18;\n// import \"./IERC721.sol\";\n\ncontract ERC721{ //is IERC721{\n    address private owner;\n    uint256 private denomination;\n    uint256 private total;\n\n    struct Note{\n        uint256 id;\n        uint256 createdAt;\n        uint256 lastTrans;\n        bool isBurnt;\n    }\n    mapping(uint => address) internal tokenIdToOwner;\n    mapping(uint => address) internal tokenIdToApprovedAddress;\n\n    // Mapping from owner to list of owned token IDs\n    mapping(address => uint256[]) internal ownedTokens;\n\n    // Mapping from token ID to index of the owner tokens list\n    mapping(uint256 => uint256) internal ownedTokensIndex;\n\n    // Array with all token ids, used for enumeration\n    Note[] internal allTokens;\n\n    uint256[] burntNotes;\n    uint256[] liveNotes;\n    // Mapping from token id to position in the allTokens array\n    mapping(uint256 => uint256) internal allTokensIndex;\n    // Events\n    event Transfer(address indexed _from, address indexed _to, uint256 _tokenId);\n    event Approval(address indexed _owner, address indexed _approved, uint256 _tokenId);\n    event Mint(uint256 quantity);\n\n\n    function ERC721(uint256 _d) public{\n        owner = msg.sender;\n        denomination = _d;\n    }\n\n    function name()external view returns (string){\n        return uint2str(denomination);\n    }\n\n    function symbol()external view returns (string){\n        return \"$\";\n    }\n\n    function totalSupply()external view returns (uint256){\n        return allTokens.length;\n    }\n\n    function balanceOf(address _owner)external view returns (uint){\n        return ownedTokens[_owner].length;\n    }\n\n    function printMoney(uint256 quantity)external onlyMe{\n        for(uint index = 0; index<quantity; index++){\n            uint256 tokenIndex = allTokens.length;\n\n            allTokens.push(Note(tokenIndex, block.timestamp, block.timestamp, false));\n\n            uint256 ownedTokenIndex = ownedTokens[msg.sender].length;\n            ownedTokens[msg.sender].push(tokenIndex);\n            tokenIdToOwner[tokenIndex] = msg.sender;\n            ownedTokensIndex[tokenIndex] = ownedTokenIndex;\n            liveNotes.push(tokenIndex);\n            allTokensIndex[tokenIndex] = allTokens.length;\n        }\n        Mint(quantity);\n    }\n    // Functions that define ownership\n    function ownerOf(uint256 _tokenId)external view returns (address){\n        return tokenIdToOwner[_tokenId];\n    }\n\n    function approve(address _to, uint256 _tokenId)external{\n        require(msg.sender == tokenIdToOwner[_tokenId]);\n        require(msg.sender != _to);\n\n        if (tokenIdToOwner[_tokenId] == msg.sender && allTokens[_tokenId].isBurnt == false) {\n            tokenIdToApprovedAddress[_tokenId] = _to;\n            Approval(msg.sender, _to, _tokenId);\n        }\n    }\n\n    function transfer(address _to, uint _tokenId) external onlyValidToken(_tokenId){\n        require(this.ownerOf(_tokenId) == msg.sender);\n\n        require(_to != address(0));\n\n        _clearApprovalAndTransfer(msg.sender, _to, _tokenId);\n\n        Approval(msg.sender, 0, _tokenId);\n        Transfer(msg.sender, _to, _tokenId);\n    }\n\n    function transferFrom(address _from, address _to, uint _tokenId)public onlyValidToken(_tokenId){\n        require(tokenIdToApprovedAddress[_tokenId] == msg.sender);\n        require(this.ownerOf(_tokenId) == _from && _from != address(0));\n        require(_to != address(0));\n\n        _clearApprovalAndTransfer(_from, _to, _tokenId);\n\n        Approval(_from, 0, _tokenId);\n        Transfer(_from, _to, _tokenId);\n    }\n\n    function takeOwnership(uint256 _tokenId)external{\n\n    }\n\n    function _clearApprovalAndTransfer(address _from, address _to, uint _tokenId) internal{\n        _clearTokenApproval(_tokenId);\n        _removeTokenFromOwnersList(_from, _tokenId);\n        _setTokenOwner(_tokenId, _to);\n        _addTokenToOwnersList(_to, _tokenId);\n    }\n    function _clearTokenApproval(uint _tokenId)internal{\n        tokenIdToApprovedAddress[_tokenId] = address(0);\n    }\n\n    function _setTokenOwner(uint256 _tokenId, address _to) internal{\n        tokenIdToOwner[_tokenId] = _to;        \n    }\n\n    function _addTokenToOwnersList(address _to, uint _tokenId) internal{\n        ownedTokens[_to].push(_tokenId);\n        uint256 ownedTokenIndex = ownedTokens[msg.sender].length;\n        ownedTokens[_to].push(_tokenId);\n        ownedTokensIndex[_tokenId] = ownedTokenIndex;\n    }\n\n    function _removeTokenFromOwnersList(address _owner, uint _tokenId)internal{\n        uint length = ownedTokens[_owner].length;\n        uint index = ownedTokensIndex[_tokenId];\n        uint swapToken = ownedTokens[_owner][length - 1];\n\n        ownedTokens[_owner][index] = swapToken;\n        ownedTokensIndex[swapToken] = index;\n\n        delete ownedTokens[_owner][length - 1];\n        ownedTokens[_owner].length--;\n    }\n\n    function getNotes(address _owner)external view returns (uint256[], uint256[], address[]){\n        uint256[] memory tokenIds;\n\n        if(_owner == 0x0){\n            tokenIds = liveNotes;\n        }else{\n            tokenIds = ownedTokens[_owner];\n        }\n\n        uint256 len = tokenIds.length;\n\n        uint256[] memory _currencyId = new uint256[](len); \n        uint256[] memory _lastUsed = new uint256[](len);\n        address[] memory _owners = new address[](len);\n        for(uint256 index = 0; index<len; index++){\n            Note memory note = allTokens[liveNotes[index]];\n            _currencyId[index] = note.id;\n            _lastUsed[index] = note.lastTrans;\n            _owners[index] = tokenIdToOwner[index];\n        }\n        return (_currencyId, _lastUsed, _owners);\n    }\n\n    function getBurntNotes(address _owner)external view returns (uint256[],uint256[], address[]){\n        if(_owner == 0x0){\n            return;\n        }\n    }\n\n    function isValidNote(uint256 _id) public returns(bool){\n        return this.ownerOf(_id)!=address(0);\n    }\n    function burnMoney(uint _tokenId) external{\n\n    }\n    modifier onlyMe(){\n        require(msg.sender == owner);\n        _;\n    }\n    modifier onlyMeAndUser(){\n        require(msg.sender == owner);\n        _;\n    }\n    modifier onlyValidToken(uint _tokenId) {\n        require(this.ownerOf(_tokenId) != address(0));\n        _;\n    }\n    function bytes32ToString(bytes32 data) internal pure returns (string) {\n        bytes memory bytesString = new bytes(32);\n        for (uint j = 0; j<32; j++) {\n            byte char = byte(bytes32(uint(data) * 2 ** (8 * j)));\n            if (char != 0) {\n                bytesString[j] = char;\n            }\n        }\n        return string(bytesString);\n    }\n\n    function uint2str(uint i) internal pure returns (string){\n        if (i == 0)\n            return \"0\";\n        uint j = i;\n        uint length;\n        while (j != 0){\n            length++;\n            j /= 10;\n        }\n        bytes memory bstr = new bytes(length);\n        uint k = length - 1;\n        while (i != 0){\n            bstr[k--] = byte(48 + i % 10);\n            i /= 10;\n        }\n        string memory _name = string(bstr);\n        return _name;\n    }\n}",
  "sourcePath": "/Users/divum/ethindia/open-banking/contracts/ERC721.sol",
  "compiler": {
    "name": "solc",
    "version": "0.4.18+commit.9cf6e910.Emscripten.clang"
  },
  "schemaVersion": "1.0.1",
  "updatedAt": "2018-08-11T14:53:08.826Z"
}