{
  "contractName": "ERC721",
  "abi": [
    {
      "constant": true,
      "inputs": [],
      "name": "name",
      "outputs": [
        {
          "name": "",
          "type": "string"
        }
      ],
      "payable": false,
      "stateMutability": "view",
      "type": "function"
    },
    {
      "constant": false,
      "inputs": [
        {
          "name": "_to",
          "type": "address"
        },
        {
          "name": "_tokenId",
          "type": "uint256"
        }
      ],
      "name": "approve",
      "outputs": [],
      "payable": false,
      "stateMutability": "nonpayable",
      "type": "function"
    },
    {
      "constant": true,
      "inputs": [
        {
          "name": "_owner",
          "type": "address"
        }
      ],
      "name": "getNotes",
      "outputs": [
        {
          "name": "",
          "type": "uint256[]"
        },
        {
          "name": "",
          "type": "uint256[]"
        },
        {
          "name": "",
          "type": "address[]"
        }
      ],
      "payable": false,
      "stateMutability": "view",
      "type": "function"
    },
    {
      "constant": true,
      "inputs": [],
      "name": "totalSupply",
      "outputs": [
        {
          "name": "",
          "type": "uint256"
        }
      ],
      "payable": false,
      "stateMutability": "view",
      "type": "function"
    },
    {
      "constant": true,
      "inputs": [],
      "name": "getDenomination",
      "outputs": [
        {
          "name": "",
          "type": "uint256"
        }
      ],
      "payable": false,
      "stateMutability": "view",
      "type": "function"
    },
    {
      "constant": false,
      "inputs": [
        {
          "name": "_from",
          "type": "address"
        },
        {
          "name": "_to",
          "type": "address"
        },
        {
          "name": "_tokenId",
          "type": "uint256"
        }
      ],
      "name": "transferFrom",
      "outputs": [],
      "payable": false,
      "stateMutability": "nonpayable",
      "type": "function"
    },
    {
      "constant": true,
      "inputs": [
        {
          "name": "_owner",
          "type": "address"
        }
      ],
      "name": "getBurntNotes",
      "outputs": [
        {
          "name": "",
          "type": "uint256[]"
        },
        {
          "name": "",
          "type": "uint256[]"
        },
        {
          "name": "",
          "type": "address[]"
        }
      ],
      "payable": false,
      "stateMutability": "view",
      "type": "function"
    },
    {
      "constant": true,
      "inputs": [
        {
          "name": "_tokenId",
          "type": "uint256"
        }
      ],
      "name": "ownerOf",
      "outputs": [
        {
          "name": "",
          "type": "address"
        }
      ],
      "payable": false,
      "stateMutability": "view",
      "type": "function"
    },
    {
      "constant": false,
      "inputs": [
        {
          "name": "quantity",
          "type": "uint256"
        }
      ],
      "name": "printMoney",
      "outputs": [],
      "payable": false,
      "stateMutability": "nonpayable",
      "type": "function"
    },
    {
      "constant": true,
      "inputs": [
        {
          "name": "_owner",
          "type": "address"
        }
      ],
      "name": "balanceOf",
      "outputs": [
        {
          "name": "",
          "type": "uint256"
        }
      ],
      "payable": false,
      "stateMutability": "view",
      "type": "function"
    },
    {
      "constant": true,
      "inputs": [],
      "name": "symbol",
      "outputs": [
        {
          "name": "",
          "type": "string"
        }
      ],
      "payable": false,
      "stateMutability": "view",
      "type": "function"
    },
    {
      "constant": false,
      "inputs": [
        {
          "name": "_id",
          "type": "uint256"
        }
      ],
      "name": "isValidNote",
      "outputs": [
        {
          "name": "",
          "type": "bool"
        }
      ],
      "payable": false,
      "stateMutability": "nonpayable",
      "type": "function"
    },
    {
      "constant": false,
      "inputs": [
        {
          "name": "_to",
          "type": "address"
        },
        {
          "name": "_tokenId",
          "type": "uint256"
        }
      ],
      "name": "transfer",
      "outputs": [],
      "payable": false,
      "stateMutability": "nonpayable",
      "type": "function"
    },
    {
      "constant": false,
      "inputs": [
        {
          "name": "_tokenId",
          "type": "uint256"
        }
      ],
      "name": "takeOwnership",
      "outputs": [],
      "payable": false,
      "stateMutability": "nonpayable",
      "type": "function"
    },
    {
      "constant": false,
      "inputs": [
        {
          "name": "_tokenId",
          "type": "uint256"
        }
      ],
      "name": "burnMoney",
      "outputs": [],
      "payable": false,
      "stateMutability": "nonpayable",
      "type": "function"
    },
    {
      "inputs": [
        {
          "name": "_d",
          "type": "uint256"
        },
        {
          "name": "_rootContract",
          "type": "address"
        }
      ],
      "payable": false,
      "stateMutability": "nonpayable",
      "type": "constructor"
    },
    {
      "anonymous": false,
      "inputs": [
        {
          "indexed": true,
          "name": "_from",
          "type": "address"
        },
        {
          "indexed": true,
          "name": "_to",
          "type": "address"
        },
        {
          "indexed": false,
          "name": "_tokenId",
          "type": "uint256"
        }
      ],
      "name": "Transfer",
      "type": "event"
    },
    {
      "anonymous": false,
      "inputs": [
        {
          "indexed": true,
          "name": "_owner",
          "type": "address"
        },
        {
          "indexed": true,
          "name": "_approved",
          "type": "address"
        },
        {
          "indexed": false,
          "name": "_tokenId",
          "type": "uint256"
        }
      ],
      "name": "Approval",
      "type": "event"
    },
    {
      "anonymous": false,
      "inputs": [
        {
          "indexed": false,
          "name": "_contractAddr",
          "type": "address"
        },
        {
          "indexed": false,
          "name": "quantity",
          "type": "uint256"
        }
      ],
      "name": "Mint",
      "type": "event"
    }
  ],
  "bytecode": "0x6060604052341561000f57600080fd5b6040516040806112bc833981016040528080519190602001805160008054600160a060020a03928316600160a060020a031991821617909155600380543390931692909116919091179055505060015561124e8061006e6000396000f3006060604052600436106100c15763ffffffff60e060020a60003504166306fdde0381146100c6578063095ea7b31461015057806310a506901461017457806318160ddd146102715780631fc601c91461029657806323b872dd146102a9578063425d86d5146102d15780636352211e146102f05780636c3109dd1461032257806370a082311461033857806395d89b4114610357578063a6c47eb11461036a578063a9059cbb14610394578063b2e6ceeb146103b6578063fed69f02146103b6575b600080fd5b34156100d157600080fd5b6100d96103cc565b60405160208082528190810183818151815260200191508051906020019080838360005b838110156101155780820151838201526020016100fd565b50505050905090810190601f1680156101425780820380516001836020036101000a031916815260200191505b509250505060405180910390f35b341561015b57600080fd5b610172600160a060020a03600435166024356103e5565b005b341561017f57600080fd5b610193600160a060020a03600435166104f6565b60405180806020018060200180602001848103845287818151815260200191508051906020019060200280838360005b838110156101db5780820151838201526020016101c3565b50505050905001848103835286818151815260200191508051906020019060200280838360005b8381101561021a578082015183820152602001610202565b50505050905001848103825285818151815260200191508051906020019060200280838360005b83811015610259578082015183820152602001610241565b50505050905001965050505050505060405180910390f35b341561027c57600080fd5b610284610785565b60405190815260200160405180910390f35b34156102a157600080fd5b61028461078b565b34156102b457600080fd5b610172600160a060020a0360043581169060243516604435610791565b34156102dc57600080fd5b610193600160a060020a0360043516610983565b34156102fb57600080fd5b6103066004356109a2565b604051600160a060020a03909116815260200160405180910390f35b341561032d57600080fd5b6101726004356109bd565b341561034357600080fd5b610284600160a060020a0360043516610b66565b341561036257600080fd5b6100d9610b81565b341561037557600080fd5b610380600435610bc2565b604051901515815260200160405180910390f35b341561039f57600080fd5b610172600160a060020a0360043516602435610c40565b34156103c157600080fd5b610172600435610df6565b6103d4611144565b6103df600154610df9565b90505b90565b60008181526004602052604090205433600160a060020a0390811691161461040c57600080fd5b81600160a060020a031633600160a060020a03161415151561042d57600080fd5b60008181526004602052604090205433600160a060020a0390811691161480156104795750600880548290811061046057fe5b600091825260209091206003600490920201015460ff16155b156104f25760008181526005602052604090819020805473ffffffffffffffffffffffffffffffffffffffff1916600160a060020a038581169182179092559133909116907f8c5be1e5ebec7d5bd14f71427d1e84f3dd0314c0f7b2291e5b200ac8c7c3b9259084905190815260200160405180910390a35b5050565b6104fe611144565b610506611144565b61050e611144565b610516611144565b6000610520611144565b610528611144565b610530611144565b600061053a611156565b600160a060020a038b1615156105a257600a80548060200260200160405190810160405280929190818152602001828054801561059657602002820191906000526020600020905b815481526020019060010190808311610582575b50505050509650610619565b600660008c600160a060020a0316600160a060020a0316815260200190815260200160002080548060200260200160405190810160405280929190818152602001828054801561061157602002820191906000526020600020905b8154815260200190600101908083116105fd575b505050505096505b865195508560405180591061062b5750595b908082528060200260200182016040525094508560405180591061064c5750595b908082528060200260200182016040525093508560405180591061066d5750595b90808252806020026020018201604052509250600091505b85821015610775576008600a8381548110151561069e57fe5b600091825260209091200154815481106106b457fe5b906000526020600020906004020160806040519081016040908152825482526001830154602083015260028301549082015260039091015460ff16151560608201529050805185838151811061070657fe5b60209081029091010152604081015184838151811061072157fe5b6020908102909101810191909152600083815260049091526040902054600160a060020a031683838151811061075357fe5b600160a060020a03909216602092830290910190910152600190910190610685565b5092999198509650945050505050565b60085490565b60015490565b80600030600160a060020a0316636352211e83836040516020015260405160e060020a63ffffffff84160281526004810191909152602401602060405180830381600087803b15156107e257600080fd5b6102c65a03f115156107f357600080fd5b50505060405180519050600160a060020a03161415151561081357600080fd5b60008281526005602052604090205433600160a060020a0390811691161461083a57600080fd5b83600160a060020a031630600160a060020a0316636352211e8460006040516020015260405160e060020a63ffffffff84160281526004810191909152602401602060405180830381600087803b151561089357600080fd5b6102c65a03f115156108a457600080fd5b50505060405180519050600160a060020a03161480156108cc5750600160a060020a03841615155b15156108d757600080fd5b600160a060020a03831615156108ec57600080fd5b6108f7848484610f2d565b600084600160a060020a03167f8c5be1e5ebec7d5bd14f71427d1e84f3dd0314c0f7b2291e5b200ac8c7c3b9258460405190815260200160405180910390a382600160a060020a031684600160a060020a03167fddf252ad1be2c89b69c2b068fc378daa952ba7f163c4a11628f55a4df523b3ef8460405190815260200160405180910390a350505050565b61098b611144565b610993611144565b61099b611144565b9193909250565b600090815260046020526040902054600160a060020a031690565b6003546000908190819033600160a060020a039081169116146109df57600080fd5b600092505b83831015610b1c57600854600a80549193509060018101610a058382611181565b5060009182526020808320919091018490558154600160a060020a031682526006905260409020805491508160018101610a3f8382611181565b5060009182526020808320919091018490558154848352600482526040808420805473ffffffffffffffffffffffffffffffffffffffff1916600160a060020a0390931692909217909155600790915290208190556008805460018101610aa683826111a5565b9160005260206000209060040201600060806040519081016040908152868252426020830181905290820152600060608201529190508151815560208201518160010155604082015181600201556060820151600391909101805460ff19169115159190911790555050600192909201916109e4565b7f0f6798a560793a54c3bcfe86a93cde1e73087d944c0ea20544137d41213968853085604051600160a060020a03909216825260208201526040908101905180910390a150505050565b600160a060020a031660009081526006602052604090205490565b610b89611144565b60408051908101604052600181527f24000000000000000000000000000000000000000000000000000000000000006020820152905090565b60008030600160a060020a0316636352211e84836040516020015260405160e060020a63ffffffff84160281526004810191909152602401602060405180830381600087803b1515610c1357600080fd5b6102c65a03f11515610c2457600080fd5b50505060405180519050600160a060020a031614159050919050565b80600030600160a060020a0316636352211e83836040516020015260405160e060020a63ffffffff84160281526004810191909152602401602060405180830381600087803b1515610c9157600080fd5b6102c65a03f11515610ca257600080fd5b50505060405180519050600160a060020a031614151515610cc257600080fd5b33600160a060020a031630600160a060020a0316636352211e8460006040516020015260405160e060020a63ffffffff84160281526004810191909152602401602060405180830381600087803b1515610d1b57600080fd5b6102c65a03f11515610d2c57600080fd5b50505060405180519050600160a060020a0316141515610d4b57600080fd5b600160a060020a0383161515610d6057600080fd5b610d6b338484610f2d565b600033600160a060020a03167f8c5be1e5ebec7d5bd14f71427d1e84f3dd0314c0f7b2291e5b200ac8c7c3b9258460405190815260200160405180910390a382600160a060020a031633600160a060020a03167fddf252ad1be2c89b69c2b068fc378daa952ba7f163c4a11628f55a4df523b3ef8460405190815260200160405180910390a3505050565b50565b610e01611144565b600080610e0c611144565b6000610e16611144565b861515610e585760408051908101604052600181527f300000000000000000000000000000000000000000000000000000000000000060208201529550610f23565b8694505b8415610e7357600190930192600a85049450610e5c565b83604051805910610e815750595b818152601f19601f8301168101602001604052905092506001840391505b8615610f1c576000198201917f01000000000000000000000000000000000000000000000000000000000000006030600a8a06010290849081518110610ee157fe5b9060200101907effffffffffffffffffffffffffffffffffffffffffffffffffffffffffffff1916908160001a905350600a87049650610e9f565b8290508095505b5050505050919050565b610f3681610f59565b610f408382610f84565b610f4a8183611078565b610f5482826110b3565b505050565b6000908152600560205260409020805473ffffffffffffffffffffffffffffffffffffffff19169055565b600160a060020a038216600081815260066020818152604080842080548786526007845291852054958552929091529291906000198401848110610fc457fe5b6000918252602080832090910154600160a060020a0388168352600690915260409091208054919250829184908110610ff957fe5b6000918252602080832090910192909255828152600782526040808220859055600160a060020a03881682526006909252208054600019850190811061103b57fe5b60009182526020808320909101829055600160a060020a03871682526006905260409020805490611070906000198301611181565b505050505050565b600091825260046020526040909120805473ffffffffffffffffffffffffffffffffffffffff1916600160a060020a03909216919091179055565b600160a060020a03821660009081526006602052604081208054600181016110db8382611181565b506000918252602080832091909101849055600160a060020a03338116835260069091526040808320549186168352909120805491925090600181016111218382611181565b506000918252602080832091909101849055928152600790925260409091205550565b60206040519081016040526000815290565b6080604051908101604052806000815260200160008152602001600081526020016000151581525090565b815481835581811511610f5457600083815260209020610f549181019083016111d1565b815481835581811511610f5457600402816004028360005260206000209182019101610f5491906111ef565b6103e291905b808211156111eb57600081556001016111d7565b5090565b6103e291905b808211156111eb57600080825560018201819055600282015560038101805460ff191690556004016111f55600a165627a7a7230582013208e099f3e5acbae069cd8afdc497556c68e86b8301972c8e00e84769208ab0029",
  "source": "pragma solidity ^0.4.18;\n// import \"./IERC721.sol\";\n\ncontract ERC721{ //is IERC721{\n    address private owner;\n    uint256 private denomination;\n    uint256 private total;\n    address private rootContract;\n    struct Note{\n        uint256 id;\n        uint256 createdAt;\n        uint256 lastTrans;\n        bool isBurnt;\n    }\n    mapping(uint => address) internal tokenIdToOwner;\n    mapping(uint => address) internal tokenIdToApprovedAddress;\n\n    // Mapping from owner to list of owned token IDs\n    mapping(address => uint256[]) internal ownedTokens;\n\n    // Mapping from token ID to index of the owner tokens list\n    mapping(uint256 => uint256) internal ownedTokensIndex;\n\n    // Array with all token ids, used for enumeration\n    Note[] internal allTokens;\n\n    uint256[] burntNotes;\n    uint256[] liveNotes;\n    // Mapping from token id to position in the allTokens array\n    mapping(uint256 => uint256) internal allTokensIndex;\n    // Events\n    event Transfer(address indexed _from, address indexed _to, uint256 _tokenId);\n    event Approval(address indexed _owner, address indexed _approved, uint256 _tokenId);\n    event Mint(address _contractAddr, uint256 quantity);\n\n\n    function ERC721(uint256 _d, address _rootContract) public{\n        // owner = msg.sender;\n        // rootContract = _rootContract;\n        owner = _rootContract;\n        rootContract = msg.sender;\n        denomination = _d;\n\n    }\n\n    function name()external view returns (string){\n        return uint2str(denomination);\n    }\n    function getDenomination()external view returns (uint256){\n        return denomination;\n    }\n\n    function symbol()external view returns (string){\n        return \"$\";\n    }\n\n    function totalSupply()external view returns (uint256){\n        return allTokens.length;\n    }\n\n    function balanceOf(address _owner)external view returns (uint){\n        return ownedTokens[_owner].length;\n    }\n\n    function printMoney(uint256 quantity)public onlyMe{\n        for(uint index = 0; index<quantity; index++){\n            uint256 tokenIndex = allTokens.length;\n\n            liveNotes.push(tokenIndex);\n\n            uint256 ownedTokenIndex = ownedTokens[owner].length;\n            ownedTokens[owner].push(tokenIndex);\n            tokenIdToOwner[tokenIndex] = owner;\n            ownedTokensIndex[tokenIndex] = ownedTokenIndex;\n            // allTokensIndex[tokenIndex] = allTokens.length;\n            allTokens.push(Note(tokenIndex, block.timestamp, block.timestamp, false));\n\n        }\n        Mint(this, quantity);\n    }\n    // Functions that define ownership\n    function ownerOf(uint256 _tokenId)external view returns (address){\n        return tokenIdToOwner[_tokenId];\n    }\n\n    function approve(address _to, uint256 _tokenId)external{\n        require(msg.sender == tokenIdToOwner[_tokenId]);\n        require(msg.sender != _to);\n\n        if (tokenIdToOwner[_tokenId] == msg.sender && allTokens[_tokenId].isBurnt == false) {\n            tokenIdToApprovedAddress[_tokenId] = _to;\n            Approval(msg.sender, _to, _tokenId);\n        }\n    }\n\n    function transfer(address _to, uint _tokenId) external onlyValidToken(_tokenId){\n        require(this.ownerOf(_tokenId) == msg.sender);\n\n        require(_to != address(0));\n\n        _clearApprovalAndTransfer(msg.sender, _to, _tokenId);\n\n        Approval(msg.sender, 0, _tokenId);\n        Transfer(msg.sender, _to, _tokenId);\n    }\n\n    function transferFrom(address _from, address _to, uint _tokenId)public onlyValidToken(_tokenId){\n        require(tokenIdToApprovedAddress[_tokenId] == msg.sender);\n        require(this.ownerOf(_tokenId) == _from && _from != address(0));\n        require(_to != address(0));\n\n        _clearApprovalAndTransfer(_from, _to, _tokenId);\n\n        Approval(_from, 0, _tokenId);\n        Transfer(_from, _to, _tokenId);\n    }\n\n    function takeOwnership(uint256 _tokenId)external{\n\n    }\n\n    function _clearApprovalAndTransfer(address _from, address _to, uint _tokenId) internal{\n        _clearTokenApproval(_tokenId);\n        _removeTokenFromOwnersList(_from, _tokenId);\n        _setTokenOwner(_tokenId, _to);\n        _addTokenToOwnersList(_to, _tokenId);\n    }\n    function _clearTokenApproval(uint _tokenId)internal{\n        tokenIdToApprovedAddress[_tokenId] = address(0);\n    }\n\n    function _setTokenOwner(uint256 _tokenId, address _to) internal{\n        tokenIdToOwner[_tokenId] = _to;        \n    }\n\n    function _addTokenToOwnersList(address _to, uint _tokenId) internal{\n        ownedTokens[_to].push(_tokenId);\n        uint256 ownedTokenIndex = ownedTokens[msg.sender].length;\n        ownedTokens[_to].push(_tokenId);\n        ownedTokensIndex[_tokenId] = ownedTokenIndex;\n    }\n\n    function _removeTokenFromOwnersList(address _owner, uint _tokenId)internal{\n        uint length = ownedTokens[_owner].length;\n        uint index = ownedTokensIndex[_tokenId];\n        uint swapToken = ownedTokens[_owner][length - 1];\n\n        ownedTokens[_owner][index] = swapToken;\n        ownedTokensIndex[swapToken] = index;\n\n        delete ownedTokens[_owner][length - 1];\n        ownedTokens[_owner].length--;\n    }\n\n    function getNotes(address _owner)external view returns (uint256[], uint256[], address[]){\n        uint256[] memory tokenIds;\n\n        if(_owner == 0x0){\n            tokenIds = liveNotes;\n        }else{\n            tokenIds = ownedTokens[_owner];\n        }\n\n        uint256 len = tokenIds.length;\n\n        uint256[] memory _currencyId = new uint256[](len); \n        uint256[] memory _lastUsed = new uint256[](len);\n        address[] memory _owners = new address[](len);\n        for(uint256 index = 0; index<len; index++){\n            Note memory note = allTokens[liveNotes[index]];\n            _currencyId[index] = note.id;\n            _lastUsed[index] = note.lastTrans;\n            _owners[index] = tokenIdToOwner[index];\n        }\n        return (_currencyId, _lastUsed, _owners);\n    }\n\n    function getBurntNotes(address _owner)external view returns (uint256[],uint256[], address[]){\n        if(_owner == 0x0){\n            return;\n        }\n    }\n\n    function isValidNote(uint256 _id) public returns(bool){\n        return this.ownerOf(_id)!=address(0);\n    }\n    function burnMoney(uint _tokenId) external{\n\n    }\n    modifier onlyMe(){\n        require(msg.sender == rootContract);\n        _;\n    }\n    modifier onlyMeAndUser(){\n        require(msg.sender == owner);\n        _;\n    }\n    modifier onlyValidToken(uint _tokenId) {\n        require(this.ownerOf(_tokenId) != address(0));\n        _;\n    }\n    function bytes32ToString(bytes32 data) internal pure returns (string) {\n        bytes memory bytesString = new bytes(32);\n        for (uint j = 0; j<32; j++) {\n            byte char = byte(bytes32(uint(data) * 2 ** (8 * j)));\n            if (char != 0) {\n                bytesString[j] = char;\n            }\n        }\n        return string(bytesString);\n    }\n\n    function uint2str(uint i) internal pure returns (string){\n        if (i == 0)\n            return \"0\";\n        uint j = i;\n        uint length;\n        while (j != 0){\n            length++;\n            j /= 10;\n        }\n        bytes memory bstr = new bytes(length);\n        uint k = length - 1;\n        while (i != 0){\n            bstr[k--] = byte(48 + i % 10);\n            i /= 10;\n        }\n        string memory _name = string(bstr);\n        return _name;\n    }\n}",
  "sourcePath": "/Users/divum/ethindia/open-banking/contracts/ERC721.sol",
  "compiler": {
    "name": "solc",
    "version": "0.4.18+commit.9cf6e910.Emscripten.clang"
  },
  "schemaVersion": "1.0.1",
  "updatedAt": "2018-08-12T05:41:42.860Z"
}