{
  "contractName": "FederalReserve",
  "abi": [
    {
      "constant": true,
      "inputs": [
        {
          "name": "",
          "type": "uint256"
        }
      ],
      "name": "erc20Contracts",
      "outputs": [
        {
          "name": "",
          "type": "address"
        }
      ],
      "payable": false,
      "stateMutability": "view",
      "type": "function"
    },
    {
      "constant": false,
      "inputs": [],
      "name": "getName",
      "outputs": [
        {
          "name": "",
          "type": "string"
        }
      ],
      "payable": false,
      "stateMutability": "nonpayable",
      "type": "function"
    },
    {
      "constant": false,
      "inputs": [
        {
          "name": "denomination",
          "type": "uint256"
        },
        {
          "name": "notes",
          "type": "uint256[]"
        },
        {
          "name": "to",
          "type": "address"
        }
      ],
      "name": "approveAndTransfer",
      "outputs": [],
      "payable": false,
      "stateMutability": "nonpayable",
      "type": "function"
    },
    {
      "constant": false,
      "inputs": [
        {
          "name": "userAddess",
          "type": "address"
        }
      ],
      "name": "addUser",
      "outputs": [],
      "payable": false,
      "stateMutability": "nonpayable",
      "type": "function"
    },
    {
      "constant": true,
      "inputs": [
        {
          "name": "userAddess",
          "type": "address"
        }
      ],
      "name": "isUserExists",
      "outputs": [
        {
          "name": "",
          "type": "bool"
        }
      ],
      "payable": false,
      "stateMutability": "view",
      "type": "function"
    },
    {
      "constant": false,
      "inputs": [
        {
          "name": "denomination",
          "type": "uint256"
        },
        {
          "name": "notes",
          "type": "uint256[]"
        },
        {
          "name": "to",
          "type": "address"
        }
      ],
      "name": "tranfer",
      "outputs": [],
      "payable": false,
      "stateMutability": "nonpayable",
      "type": "function"
    },
    {
      "constant": false,
      "inputs": [
        {
          "name": "denomination",
          "type": "uint256"
        },
        {
          "name": "quantity",
          "type": "uint256"
        }
      ],
      "name": "printMoney",
      "outputs": [],
      "payable": false,
      "stateMutability": "nonpayable",
      "type": "function"
    },
    {
      "constant": false,
      "inputs": [
        {
          "name": "denomination",
          "type": "uint256"
        },
        {
          "name": "notes",
          "type": "uint256[]"
        },
        {
          "name": "to",
          "type": "address"
        }
      ],
      "name": "approve",
      "outputs": [],
      "payable": false,
      "stateMutability": "nonpayable",
      "type": "function"
    },
    {
      "constant": true,
      "inputs": [],
      "name": "getDenominations",
      "outputs": [
        {
          "name": "",
          "type": "uint256[]"
        },
        {
          "name": "",
          "type": "address[]"
        }
      ],
      "payable": false,
      "stateMutability": "view",
      "type": "function"
    },
    {
      "constant": false,
      "inputs": [
        {
          "name": "denomination",
          "type": "uint256"
        },
        {
          "name": "notes",
          "type": "uint256[]"
        }
      ],
      "name": "burnMoney",
      "outputs": [],
      "payable": false,
      "stateMutability": "nonpayable",
      "type": "function"
    },
    {
      "inputs": [],
      "payable": false,
      "stateMutability": "nonpayable",
      "type": "constructor"
    }
  ],
  "bytecode": "0x6060604052341561000f57600080fd5b60008054600160a060020a033316600160a060020a0319909116179055610c528061003b6000396000f30060606040526004361061008a5763ffffffff60e060020a60003504166306c6948e811461008f57806317d7de7c146100c15780632cc4b3421461014b578063421b2d8b1461017b578063509222cd1461019a578063787fb768146101cd5780637d42289e146101fb5780638c9d147014610214578063d95a1c7614610242578063fdbafbbc146102ee575b600080fd5b341561009a57600080fd5b6100a5600435610310565b604051600160a060020a03909116815260200160405180910390f35b34156100cc57600080fd5b6100d4610338565b60405160208082528190810183818151815260200191508051906020019080838360005b838110156101105780820151838201526020016100f8565b50505050905090810190601f16801561013d5780820380516001836020036101000a031916815260200191505b509250505060405180910390f35b341561015657600080fd5b610179600480359060248035908101910135600160a060020a0360443516610379565b005b341561018657600080fd5b610179600160a060020a03600435166105b6565b34156101a557600080fd5b6101b9600160a060020a03600435166105f8565b604051901515815260200160405180910390f35b34156101d857600080fd5b610179600480359060248035908101910135600160a060020a0360443516610616565b341561020657600080fd5b6101796004356024356107ec565b341561021f57600080fd5b610179600480359060248035908101910135600160a060020a0360443516610821565b341561024d57600080fd5b6102556109f7565b604051808060200180602001838103835285818151815260200191508051906020019060200280838360005b83811015610299578082015183820152602001610281565b50505050905001838103825284818151815260200191508051906020019060200280838360005b838110156102d85780820151838201526020016102c0565b5050505090500194505050505060405180910390f35b34156102f957600080fd5b610179600480359060248035908101910135610ac1565b600480548290811061031e57fe5b600091825260209091200154600160a060020a0316905081565b610340610c14565b60408051908101604052600f81527f4665646572616c205265736572766500000000000000000000000000000000006020820152905090565b60008030600160a060020a031663509222cd3360006040516020015260405160e060020a63ffffffff8416028152600160a060020a039091166004820152602401602060405180830381600087803b15156103d357600080fd5b6102c65a03f115156103e457600080fd5b505050604051805190508015610468575030600160a060020a031663509222cd8460006040516020015260405160e060020a63ffffffff8416028152600160a060020a039091166004820152602401602060405180830381600087803b151561044c57600080fd5b6102c65a03f1151561045d57600080fd5b505050604051805190505b151561047357600080fd5b60008681526002602052604090205460048054909190811061049157fe5b6000918252602082200154600160a060020a0316925090505b838110156105ae57600160a060020a03821663095ea7b3848787858181106104ce57fe5b9050602002013560405160e060020a63ffffffff8516028152600160a060020a0390921660048301526024820152604401600060405180830381600087803b151561051857600080fd5b6102c65a03f1151561052957600080fd5b505050600160a060020a03821663a9059cbb8487878581811061054857fe5b9050602002013560405160e060020a63ffffffff8516028152600160a060020a0390921660048301526024820152604401600060405180830381600087803b151561059257600080fd5b6102c65a03f115156105a357600080fd5b5050506001016104aa565b505050505050565b60005433600160a060020a039081169116146105d157600080fd5b600160a060020a03166000908152600160208190526040909120805460ff19169091179055565b600160a060020a031660009081526001602052604090205460ff1690565b60008054819033600160a060020a0390811691161461063457600080fd5b30600160a060020a031663509222cd3360006040516020015260405160e060020a63ffffffff8416028152600160a060020a039091166004820152602401602060405180830381600087803b151561068b57600080fd5b6102c65a03f1151561069c57600080fd5b505050604051805190508015610720575030600160a060020a031663509222cd8460006040516020015260405160e060020a63ffffffff8416028152600160a060020a039091166004820152602401602060405180830381600087803b151561070457600080fd5b6102c65a03f1151561071557600080fd5b505050604051805190505b151561072b57600080fd5b60008681526002602052604090205460048054909190811061074957fe5b6000918252602082200154600160a060020a0316925090505b838110156105ae57600160a060020a03821663a9059cbb8487878581811061078657fe5b9050602002013560405160e060020a63ffffffff8516028152600160a060020a0390921660048301526024820152604401600060405180830381600087803b15156107d057600080fd5b6102c65a03f115156107e157600080fd5b505050600101610762565b6000805433600160a060020a0390811691161461080857600080fd5b5060005b8181101561081c5760010161080c565b505050565b60008054819033600160a060020a0390811691161461083f57600080fd5b30600160a060020a031663509222cd3360006040516020015260405160e060020a63ffffffff8416028152600160a060020a039091166004820152602401602060405180830381600087803b151561089657600080fd5b6102c65a03f115156108a757600080fd5b50505060405180519050801561092b575030600160a060020a031663509222cd8460006040516020015260405160e060020a63ffffffff8416028152600160a060020a039091166004820152602401602060405180830381600087803b151561090f57600080fd5b6102c65a03f1151561092057600080fd5b505050604051805190505b151561093657600080fd5b60008681526002602052604090205460048054909190811061095457fe5b6000918252602082200154600160a060020a0316925090505b838110156105ae57600160a060020a03821663095ea7b38487878581811061099157fe5b9050602002013560405160e060020a63ffffffff8516028152600160a060020a0390921660048301526024820152604401600060405180830381600087803b15156109db57600080fd5b6102c65a03f115156109ec57600080fd5b50505060010161096d565b6109ff610c14565b610a07610c14565b6003600481805480602002602001604051908101604052809291908181526020018280548015610a5657602002820191906000526020600020905b815481526020019060010190808311610a42575b5050505050915080805480602002602001604051908101604052809291908181526020018280548015610ab257602002820191906000526020600020905b8154600160a060020a03168152600190910190602001808311610a94575b50505050509050915091509091565b60008054819033600160a060020a0390811691161480610b4f575030600160a060020a031663509222cd3360006040516020015260405160e060020a63ffffffff8416028152600160a060020a039091166004820152602401602060405180830381600087803b1515610b3357600080fd5b6102c65a03f11515610b4457600080fd5b505050604051805190505b1515610b5a57600080fd5b600085815260026020526040902054600480549091908110610b7857fe5b6000918252602082200154600160a060020a0316925090505b82811015610c0d57600160a060020a03821663fed69f02858584818110610bb457fe5b9050602002013560405160e060020a63ffffffff84160281526004810191909152602401600060405180830381600087803b1515610bf157600080fd5b6102c65a03f11515610c0257600080fd5b505050600101610b91565b5050505050565b602060405190810160405260008152905600a165627a7a72305820739e2741a2ade4259c0422f0c3caa24cd096d1621d95907aed30653e555393100029",
  "source": "pragma solidity ^0.4.18;\n// import \"./IGovernance.sol\";\nimport \"./ERC721.sol\";\n\ncontract FederalReserve {//is  IGovernance{\n    address private _owner;\n\n    mapping (address=>bool) private federalReserve;\n    mapping (uint256=>uint256) private cryptoERC20;\n    uint[] private denominations;\n    address[] public erc20Contracts;\n    function FederalReserve() public{\n        _owner = msg.sender;\n    }\n    function getName() external returns(string){\n        return \"Federal Reserve\";\n    }\n\n    function printMoney(uint256 denomination, uint256 quantity) external onlyMe{\n        for(uint index = 0; index<quantity; index++){\n            // if(erc20Contracts.length == 0 || erc20Contracts[cryptoERC20[denomination]] == address(0)){\n            //     createMoneyContract(denomination);\n            //     // continue;\n            // }\n            // ERC721 _moneyContract = ERC721(cryptoERC20[denomination]);\n            // _moneyContract.printMoney(quantity);\n        }\n    }\n\n    function createMoneyContract(uint256 denomination) internal{\n        ERC721 _moneyContract = new ERC721(denomination);\n        cryptoERC20[denomination] = erc20Contracts.length;\n        erc20Contracts.push(_moneyContract);\n        denominations.push(denomination);\n    }\n\n    function approve(uint256 denomination, uint256[] notes, address to) external onlyMe{\n        require(this.isUserExists(msg.sender) && this.isUserExists(to));\n        ERC721 _moneyContract = ERC721(erc20Contracts[cryptoERC20[denomination]]);\n        for(uint256 index = 0; index<notes.length; index++){\n            _moneyContract.approve(to, notes[index]);\n        }\n    }\n\n    function tranfer(uint256 denomination, uint256[] notes, address to) external onlyMe{\n        require(this.isUserExists(msg.sender) && this.isUserExists(to));\n        ERC721 _moneyContract = ERC721(erc20Contracts[cryptoERC20[denomination]]);\n        for(uint256 index = 0; index<notes.length; index++){\n            _moneyContract.transfer(to, notes[index]);\n        }\n    }\n\n    function approveAndTransfer(uint256 denomination, uint256[] notes, address to) external{\n        require(this.isUserExists(msg.sender) && this.isUserExists(to));\n        ERC721 _moneyContract = ERC721(erc20Contracts[cryptoERC20[denomination]]);\n        for(uint256 index = 0; index<notes.length; index++){\n            _moneyContract.approve(to, notes[index]);\n            _moneyContract.transfer(to, notes[index]);\n        }\n    }\n\n    function burnMoney(uint256 denomination, uint256[] notes) external onlyMeAndUser{\n        ERC721 _moneyContract = ERC721(erc20Contracts[cryptoERC20[denomination]]);\n        for(uint256 index = 0; index<notes.length; index++){\n            _moneyContract.burnMoney(notes[index]);\n        }\n    }\n\n    function getDenominations()external view returns(uint256[], address[]){\n        return (denominations, erc20Contracts);\n    }\n\n    // function getNotes(uint256 denomination, address _user)external view returns(uint256[],uint256[], address[]){\n    //     ERC721 _moneyContract = ERC721(erc20Contracts[cryptoERC20[denomination]]);\n    //     return _moneyContract.getNotes(_user);\n    // }\n\n    // function getBurnNotes(uint256 denomination, address _user)external view returns(uint256[],uint256[], address[]){\n    //     ERC721 _moneyContract = ERC721(erc20Contracts[cryptoERC20[denomination]]);\n    //     return _moneyContract.getBurntNotes(_user);        \n    // }\n\n    function addUser(address userAddess) external onlyMe{\n        federalReserve[userAddess] = true;\n    }\n\n    function isUserExists(address userAddess) external view returns(bool){\n        return federalReserve[userAddess];\n    }\n\n    modifier onlyMe(){\n        require(msg.sender == _owner);\n        _;\n    }\n\n    modifier onlyMeAndUser(){\n        require(msg.sender == _owner || this.isUserExists(msg.sender));\n        _;\n    }\n\n}",
  "sourcePath": "/Users/divum/ethindia/open-banking/contracts/FederalReserve.sol",
  "compiler": {
    "name": "solc",
    "version": "0.4.18+commit.9cf6e910.Emscripten.clang"
  },
  "schemaVersion": "1.0.1",
  "updatedAt": "2018-08-11T17:09:09.038Z"
}