{
  "contractName": "FederalReserve",
  "abi": [
    {
      "constant": true,
      "inputs": [
        {
          "name": "_addr",
          "type": "address"
        }
      ],
      "name": "getPapersPrinted",
      "outputs": [
        {
          "name": "",
          "type": "uint256"
        }
      ],
      "payable": false,
      "stateMutability": "view",
      "type": "function"
    },
    {
      "constant": false,
      "inputs": [],
      "name": "getName",
      "outputs": [
        {
          "name": "",
          "type": "string"
        }
      ],
      "payable": false,
      "stateMutability": "nonpayable",
      "type": "function"
    },
    {
      "constant": true,
      "inputs": [
        {
          "name": "_addr",
          "type": "address"
        }
      ],
      "name": "getTotalMoney",
      "outputs": [
        {
          "name": "",
          "type": "uint256"
        }
      ],
      "payable": false,
      "stateMutability": "view",
      "type": "function"
    },
    {
      "constant": false,
      "inputs": [
        {
          "name": "denomination",
          "type": "uint256"
        },
        {
          "name": "notes",
          "type": "uint256[]"
        },
        {
          "name": "to",
          "type": "address"
        }
      ],
      "name": "approveAndTransfer",
      "outputs": [],
      "payable": false,
      "stateMutability": "nonpayable",
      "type": "function"
    },
    {
      "constant": false,
      "inputs": [
        {
          "name": "denomination",
          "type": "uint256"
        },
        {
          "name": "noteId",
          "type": "uint256"
        },
        {
          "name": "ownerOf",
          "type": "address"
        }
      ],
      "name": "requestMoney",
      "outputs": [],
      "payable": false,
      "stateMutability": "nonpayable",
      "type": "function"
    },
    {
      "constant": false,
      "inputs": [
        {
          "name": "denomination",
          "type": "uint256"
        },
        {
          "name": "noteId",
          "type": "uint256"
        }
      ],
      "name": "isValidNote",
      "outputs": [
        {
          "name": "",
          "type": "bool"
        }
      ],
      "payable": false,
      "stateMutability": "nonpayable",
      "type": "function"
    },
    {
      "constant": false,
      "inputs": [
        {
          "name": "userAddess",
          "type": "address"
        }
      ],
      "name": "addUser",
      "outputs": [],
      "payable": false,
      "stateMutability": "nonpayable",
      "type": "function"
    },
    {
      "constant": false,
      "inputs": [
        {
          "name": "denomination",
          "type": "uint256"
        },
        {
          "name": "noteId",
          "type": "uint256"
        },
        {
          "name": "ownerOf",
          "type": "address"
        }
      ],
      "name": "validateNote",
      "outputs": [
        {
          "name": "",
          "type": "bool"
        }
      ],
      "payable": false,
      "stateMutability": "nonpayable",
      "type": "function"
    },
    {
      "constant": true,
      "inputs": [
        {
          "name": "userAddess",
          "type": "address"
        }
      ],
      "name": "isUserExists",
      "outputs": [
        {
          "name": "",
          "type": "bool"
        }
      ],
      "payable": false,
      "stateMutability": "view",
      "type": "function"
    },
    {
      "constant": false,
      "inputs": [
        {
          "name": "denomination",
          "type": "uint256"
        },
        {
          "name": "notes",
          "type": "uint256[]"
        },
        {
          "name": "to",
          "type": "address"
        }
      ],
      "name": "tranfer",
      "outputs": [],
      "payable": false,
      "stateMutability": "nonpayable",
      "type": "function"
    },
    {
      "constant": false,
      "inputs": [
        {
          "name": "denomination",
          "type": "uint256"
        },
        {
          "name": "quantity",
          "type": "uint256"
        }
      ],
      "name": "printMoney",
      "outputs": [],
      "payable": false,
      "stateMutability": "nonpayable",
      "type": "function"
    },
    {
      "constant": false,
      "inputs": [
        {
          "name": "denomination",
          "type": "uint256"
        },
        {
          "name": "notes",
          "type": "uint256[]"
        },
        {
          "name": "to",
          "type": "address"
        }
      ],
      "name": "approve",
      "outputs": [],
      "payable": false,
      "stateMutability": "nonpayable",
      "type": "function"
    },
    {
      "constant": true,
      "inputs": [],
      "name": "getDenominations",
      "outputs": [
        {
          "name": "",
          "type": "uint256[]"
        },
        {
          "name": "",
          "type": "address[]"
        }
      ],
      "payable": false,
      "stateMutability": "view",
      "type": "function"
    },
    {
      "constant": false,
      "inputs": [
        {
          "name": "denomination",
          "type": "uint256"
        },
        {
          "name": "notes",
          "type": "uint256[]"
        }
      ],
      "name": "burnMoney",
      "outputs": [],
      "payable": false,
      "stateMutability": "nonpayable",
      "type": "function"
    },
    {
      "inputs": [],
      "payable": false,
      "stateMutability": "nonpayable",
      "type": "constructor"
    },
    {
      "anonymous": false,
      "inputs": [
        {
          "indexed": false,
          "name": "msgr",
          "type": "string"
        }
      ],
      "name": "onTransactionCompleted",
      "type": "event"
    },
    {
      "anonymous": false,
      "inputs": [
        {
          "indexed": true,
          "name": "_from",
          "type": "address"
        },
        {
          "indexed": true,
          "name": "_to",
          "type": "address"
        },
        {
          "indexed": false,
          "name": "contractAddr",
          "type": "address"
        },
        {
          "indexed": false,
          "name": "noteId",
          "type": "uint256"
        }
      ],
      "name": "requestNote",
      "type": "event"
    }
  ],
  "bytecode": "0x6060604052341561000f57600080fd5b60008054600160a060020a033316600160a060020a03199091161790556126978061003b6000396000f3006060604052600436106100b65763ffffffff60e060020a60003504166314f1d91081146100bb57806317d7de7c146100ec57806324fbfc94146101765780632cc4b3421461019557806331b97120146101c5578063384e230f146101ea578063421b2d8b146102175780634506ba0d14610236578063509222cd1461025b578063787fb7681461027a5780637d42289e146102a85780638c9d1470146102c1578063d95a1c76146102ef578063fdbafbbc1461039b575b600080fd5b34156100c657600080fd5b6100da600160a060020a03600435166103bd565b60405190815260200160405180910390f35b34156100f757600080fd5b6100ff6104cc565b60405160208082528190810183818151815260200191508051906020019080838360005b8381101561013b578082015183820152602001610123565b50505050905090810190601f1680156101685780820380516001836020036101000a031916815260200191505b509250505060405180910390f35b341561018157600080fd5b6100da600160a060020a036004351661050e565b34156101a057600080fd5b6101c3600480359060248035908101910135600160a060020a0360443516610636565b005b34156101d057600080fd5b6101c3600435602435600160a060020a03604435166108ab565b34156101f557600080fd5b61020360043560243561092c565b604051901515815260200160405180910390f35b341561022257600080fd5b6101c3600160a060020a03600435166109d9565b341561024157600080fd5b610203600435602435600160a060020a0360443516610a1b565b341561026657600080fd5b610203600160a060020a0360043516610af4565b341561028557600080fd5b6101c3600480359060248035908101910135600160a060020a0360443516610b12565b34156102b357600080fd5b6101c3600435602435610d28565b34156102cc57600080fd5b6101c3600480359060248035908101910135600160a060020a0360443516610e3c565b34156102fa57600080fd5b610302611052565b604051808060200180602001838103835285818151815260200191508051906020019060200280838360005b8381101561034657808201518382015260200161032e565b50505050905001838103825284818151815260200191508051906020019060200280838360005b8381101561038557808201518382015260200161036d565b5050505090500194505050505060405180910390f35b34156103a657600080fd5b6101c360048035906024803590810191013561111c565b60008080805b6003548210156104c3575060008181526002602052604080822054600160a060020a03169182916370a08231918891516020015260405160e060020a63ffffffff8416028152600160a060020a039091166004820152602401602060405180830381600087803b151561043557600080fd5b6102c65a03f1151561044657600080fd5b5050506040518051905081600160a060020a0316631fc601c96000604051602001526040518163ffffffff1660e060020a028152600401602060405180830381600087803b151561049657600080fd5b6102c65a03f115156104a757600080fd5b50505060405180519050028301925081806001019250506103c3565b50909392505050565b6104d461138a565b60408051908101604052600f81527f4665646572616c20526573657276650000000000000000000000000000000000602082015290505b90565b60008080805b6003548210156104c3576002600060038481548110151561053157fe5b600091825260208083209091015483528201929092526040908101822054600160a060020a0316925082916370a0823191889190516020015260405160e060020a63ffffffff8416028152600160a060020a039091166004820152602401602060405180830381600087803b15156105a857600080fd5b6102c65a03f115156105b957600080fd5b5050506040518051905081600160a060020a0316631fc601c96000604051602001526040518163ffffffff1660e060020a028152600401602060405180830381600087803b151561060957600080fd5b6102c65a03f1151561061a57600080fd5b5050506040518051905002830192508180600101925050610514565b60008030600160a060020a031663509222cd3360006040516020015260405160e060020a63ffffffff8416028152600160a060020a039091166004820152602401602060405180830381600087803b151561069057600080fd5b6102c65a03f115156106a157600080fd5b505050604051805190508015610725575030600160a060020a031663509222cd8460006040516020015260405160e060020a63ffffffff8416028152600160a060020a039091166004820152602401602060405180830381600087803b151561070957600080fd5b6102c65a03f1151561071a57600080fd5b505050604051805190505b151561073057600080fd5b5050600084815260026020526040812054600160a060020a0316905b8381101561085057600160a060020a03821663095ea7b38487878581811061077057fe5b9050602002013560405160e060020a63ffffffff8516028152600160a060020a0390921660048301526024820152604401600060405180830381600087803b15156107ba57600080fd5b6102c65a03f115156107cb57600080fd5b505050600160a060020a03821663a9059cbb848787858181106107ea57fe5b9050602002013560405160e060020a63ffffffff8516028152600160a060020a0390921660048301526024820152604401600060405180830381600087803b151561083457600080fd5b6102c65a03f1151561084557600080fd5b50505060010161074c565b60008051602061264c83398151915260405160208082526012908201527f617070726f7665416e645472616e7366657200000000000000000000000000006040808301919091526060909101905180910390a1505050505050565b6108b6838383610a1b565b15156108c157600080fd5b6000838152600260205260409081902054600160a060020a0380841692338216927fcd928efa1d91dd0cf8fac83d5b9077c5a1bc7276c492b09eccc62aacd19144ce921690869051600160a060020a03909216825260208201526040908101905180910390a3505050565b6000828152600260205260408120548190600160a060020a0316151561095557600091506109d2565b5060008381526002602052604080822054600160a060020a031691829163a6c47eb1918691516020015260405160e060020a63ffffffff84160281526004810191909152602401602060405180830381600087803b15156109b557600080fd5b6102c65a03f115156109c657600080fd5b50505060405180519250505b5092915050565b60005433600160a060020a039081169116146109f457600080fd5b600160a060020a03166000908152600160208190526040909120805460ff19169091179055565b6000838152600260205260408120548190600160a060020a03161515610a445760009150610aec565b610a4e858561092c565b1515610a5d5760009150610aec565b5060008481526002602052604080822054600160a060020a0390811692908516918391636352211e91889190516020015260405160e060020a63ffffffff84160281526004810191909152602401602060405180830381600087803b1515610ac457600080fd5b6102c65a03f11515610ad557600080fd5b50505060405180519050600160a060020a03161491505b509392505050565b600160a060020a031660009081526001602052604090205460ff1690565b60008054819033600160a060020a03908116911614610b3057600080fd5b30600160a060020a031663509222cd3360006040516020015260405160e060020a63ffffffff8416028152600160a060020a039091166004820152602401602060405180830381600087803b1515610b8757600080fd5b6102c65a03f11515610b9857600080fd5b505050604051805190508015610c1c575030600160a060020a031663509222cd8460006040516020015260405160e060020a63ffffffff8416028152600160a060020a039091166004820152602401602060405180830381600087803b1515610c0057600080fd5b6102c65a03f11515610c1157600080fd5b505050604051805190505b1515610c2757600080fd5b5050600084815260026020526040812054600160a060020a0316905b83811015610ccd57600160a060020a03821663a9059cbb84878785818110610c6757fe5b9050602002013560405160e060020a63ffffffff8516028152600160a060020a0390921660048301526024820152604401600060405180830381600087803b1515610cb157600080fd5b6102c65a03f11515610cc257600080fd5b505050600101610c43565b60008051602061264c83398151915260405160208082526007908201527f7472616e666572000000000000000000000000000000000000000000000000006040808301919091526060909101905180910390a1505050505050565b6000805433600160a060020a03908116911614610d4457600080fd5b6004541580610d685750600083815260026020526040902054600160a060020a0316155b15610d7657610d76836112a7565b506000828152600260205260409081902054600160a060020a0316908190636c3109dd9084905160e060020a63ffffffff84160281526004810191909152602401600060405180830381600087803b1515610dd057600080fd5b6102c65a03f11515610de157600080fd5b50505060008051602061264c8339815191526040516020808252600a908201527f7072696e744d6f6e6579000000000000000000000000000000000000000000006040808301919091526060909101905180910390a1505050565b60008054819033600160a060020a03908116911614610e5a57600080fd5b30600160a060020a031663509222cd3360006040516020015260405160e060020a63ffffffff8416028152600160a060020a039091166004820152602401602060405180830381600087803b1515610eb157600080fd5b6102c65a03f11515610ec257600080fd5b505050604051805190508015610f46575030600160a060020a031663509222cd8460006040516020015260405160e060020a63ffffffff8416028152600160a060020a039091166004820152602401602060405180830381600087803b1515610f2a57600080fd5b6102c65a03f11515610f3b57600080fd5b505050604051805190505b1515610f5157600080fd5b5050600084815260026020526040812054600160a060020a0316905b83811015610ff757600160a060020a03821663095ea7b384878785818110610f9157fe5b9050602002013560405160e060020a63ffffffff8516028152600160a060020a0390921660048301526024820152604401600060405180830381600087803b1515610fdb57600080fd5b6102c65a03f11515610fec57600080fd5b505050600101610f6d565b60008051602061264c83398151915260405160208082526007908201527f617070726f7665000000000000000000000000000000000000000000000000006040808301919091526060909101905180910390a1505050505050565b61105a61138a565b61106261138a565b60036004818054806020026020016040519081016040528092919081815260200182805480156110b157602002820191906000526020600020905b81548152602001906001019080831161109d575b505050505091508080548060200260200160405190810160405280929190818152602001828054801561110d57602002820191906000526020600020905b8154600160a060020a031681526001909101906020018083116110ef575b50505050509050915091509091565b60008054819033600160a060020a03908116911614806111aa575030600160a060020a031663509222cd3360006040516020015260405160e060020a63ffffffff8416028152600160a060020a039091166004820152602401602060405180830381600087803b151561118e57600080fd5b6102c65a03f1151561119f57600080fd5b505050604051805190505b15156111b557600080fd5b5050600083815260026020526040812054600160a060020a0316905b8281101561124d57600160a060020a03821663fed69f028585848181106111f457fe5b9050602002013560405160e060020a63ffffffff84160281526004810191909152602401600060405180830381600087803b151561123157600080fd5b6102c65a03f1151561124257600080fd5b5050506001016111d1565b60008051602061264c83398151915260405160208082526009908201527f6275726e4d6f6e657900000000000000000000000000000000000000000000006040808301919091526060909101905180910390a15050505050565b600080548290600160a060020a03166112be61139c565b918252600160a060020a0316602082015260409081019051809103906000f08015156112e957600080fd5b6000838152600260205260409020805473ffffffffffffffffffffffffffffffffffffffff1916600160a060020a03831617905560048054919250906001810161133383826113ac565b506000918252602090912001805473ffffffffffffffffffffffffffffffffffffffff1916600160a060020a038316179055600380546001810161137783826113ac565b5060009182526020909120019190915550565b60206040519081016040526000815290565b604051611258806113f483390190565b8154818355818115116113d0576000838152602090206113d09181019083016113d5565b505050565b61050b91905b808211156113ef57600081556001016113db565b509056006060604052341561000f57600080fd5b604051604080611258833981016040528080519190602001805160008054600160a060020a03928316600160a060020a03199182161790915560038054339093169290911691909117905550506001556111ea8061006e6000396000f3006060604052600436106100cc5763ffffffff60e060020a60003504166306fdde0381146100d1578063095ea7b31461015b57806310a506901461017f57806318160ddd1461027c5780631fc601c9146102a157806323b872dd146102b4578063425d86d5146102dc578063542a4efc146102fb5780636352211e1461031d5780636c3109dd1461034f57806370a082311461036557806395d89b4114610384578063a6c47eb114610397578063a9059cbb146103c1578063b2e6ceeb146103e3578063fed69f02146103e3575b600080fd5b34156100dc57600080fd5b6100e46103f9565b60405160208082528190810183818151815260200191508051906020019080838360005b83811015610120578082015183820152602001610108565b50505050905090810190601f16801561014d5780820380516001836020036101000a031916815260200191505b509250505060405180910390f35b341561016657600080fd5b61017d600160a060020a0360043516602435610412565b005b341561018a57600080fd5b61019e600160a060020a03600435166104d1565b60405180806020018060200180602001848103845287818151815260200191508051906020019060200280838360005b838110156101e65780820151838201526020016101ce565b50505050905001848103835286818151815260200191508051906020019060200280838360005b8381101561022557808201518382015260200161020d565b50505050905001848103825285818151815260200191508051906020019060200280838360005b8381101561026457808201518382015260200161024c565b50505050905001965050505050505060405180910390f35b341561028757600080fd5b61028f610760565b60405190815260200160405180910390f35b34156102ac57600080fd5b61028f610766565b34156102bf57600080fd5b61017d600160a060020a036004358116906024351660443561076c565b34156102e757600080fd5b61019e600160a060020a0360043516610953565b341561030657600080fd5b61017d600160a060020a0360043516602435610972565b341561032857600080fd5b610333600435610a46565b604051600160a060020a03909116815260200160405180910390f35b341561035a57600080fd5b61017d600435610a61565b341561037057600080fd5b61028f600160a060020a0360043516610c0a565b341561038f57600080fd5b6100e4610c25565b34156103a257600080fd5b6103ad600435610c66565b604051901515815260200160405180910390f35b34156103cc57600080fd5b61017d600160a060020a0360043516602435610ce4565b34156103ee57600080fd5b61017d600435610dc1565b6104016110e0565b61040c600154610dc4565b90505b90565b60008181526004602052604090205433600160a060020a0390811691161461043957600080fd5b81600160a060020a031633600160a060020a03161415151561045a57600080fd5b60008181526005602052604090819020805473ffffffffffffffffffffffffffffffffffffffff1916600160a060020a038581169182179092559133909116907f8c5be1e5ebec7d5bd14f71427d1e84f3dd0314c0f7b2291e5b200ac8c7c3b9259084905190815260200160405180910390a35050565b6104d96110e0565b6104e16110e0565b6104e96110e0565b6104f16110e0565b60006104fb6110e0565b6105036110e0565b61050b6110e0565b60006105156110f2565b600160a060020a038b16151561057d57600a80548060200260200160405190810160405280929190818152602001828054801561057157602002820191906000526020600020905b81548152602001906001019080831161055d575b505050505096506105f4565b600660008c600160a060020a0316600160a060020a031681526020019081526020016000208054806020026020016040519081016040528092919081815260200182805480156105ec57602002820191906000526020600020905b8154815260200190600101908083116105d8575b505050505096505b86519550856040518059106106065750595b90808252806020026020018201604052509450856040518059106106275750595b90808252806020026020018201604052509350856040518059106106485750595b90808252806020026020018201604052509250600091505b85821015610750576008600a8381548110151561067957fe5b6000918252602090912001548154811061068f57fe5b906000526020600020906004020160806040519081016040908152825482526001830154602083015260028301549082015260039091015460ff1615156060820152905080518583815181106106e157fe5b6020908102909101015260408101518483815181106106fc57fe5b6020908102909101810191909152600083815260049091526040902054600160a060020a031683838151811061072e57fe5b600160a060020a03909216602092830290910190910152600190910190610660565b5092999198509650945050505050565b60085490565b60015490565b80600030600160a060020a0316636352211e83836040516020015260405160e060020a63ffffffff84160281526004810191909152602401602060405180830381600087803b15156107bd57600080fd5b6102c65a03f115156107ce57600080fd5b50505060405180519050600160a060020a0316141515156107ee57600080fd5b60008281526005602052604090205433600160a060020a0390811691161461081557600080fd5b83600160a060020a031630600160a060020a0316636352211e8460006040516020015260405160e060020a63ffffffff84160281526004810191909152602401602060405180830381600087803b151561086e57600080fd5b6102c65a03f1151561087f57600080fd5b50505060405180519050600160a060020a03161480156108a75750600160a060020a03841615155b15156108b257600080fd5b600160a060020a03831615156108c757600080fd5b600084600160a060020a03167f8c5be1e5ebec7d5bd14f71427d1e84f3dd0314c0f7b2291e5b200ac8c7c3b9258460405190815260200160405180910390a382600160a060020a031684600160a060020a03167fddf252ad1be2c89b69c2b068fc378daa952ba7f163c4a11628f55a4df523b3ef8460405190815260200160405180910390a350505050565b61095b6110e0565b6109636110e0565b61096b6110e0565b9193909250565b30600160a060020a031663095ea7b3838360405160e060020a63ffffffff8516028152600160a060020a0390921660048301526024820152604401600060405180830381600087803b15156109c657600080fd5b6102c65a03f115156109d757600080fd5b50505030600160a060020a031663a9059cbb838360405160e060020a63ffffffff8516028152600160a060020a0390921660048301526024820152604401600060405180830381600087803b1515610a2e57600080fd5b6102c65a03f11515610a3f57600080fd5b5050505050565b600090815260046020526040902054600160a060020a031690565b6003546000908190819033600160a060020a03908116911614610a8357600080fd5b600092505b83831015610bc057600854600a80549193509060018101610aa9838261111d565b5060009182526020808320919091018490558154600160a060020a031682526006905260409020805491508160018101610ae3838261111d565b5060009182526020808320919091018490558154848352600482526040808420805473ffffffffffffffffffffffffffffffffffffffff1916600160a060020a0390931692909217909155600790915290208190556008805460018101610b4a8382611141565b9160005260206000209060040201600060806040519081016040908152868252426020830181905290820152600060608201529190508151815560208201518160010155604082015181600201556060820151600391909101805460ff1916911515919091179055505060019290920191610a88565b7f0f6798a560793a54c3bcfe86a93cde1e73087d944c0ea20544137d41213968853085604051600160a060020a03909216825260208201526040908101905180910390a150505050565b600160a060020a031660009081526006602052604090205490565b610c2d6110e0565b60408051908101604052600181527f24000000000000000000000000000000000000000000000000000000000000006020820152905090565b60008030600160a060020a0316636352211e84836040516020015260405160e060020a63ffffffff84160281526004810191909152602401602060405180830381600087803b1515610cb757600080fd5b6102c65a03f11515610cc857600080fd5b50505060405180519050600160a060020a031614159050919050565b60008181526004602052604090205433600160a060020a03908116911614610d0b57600080fd5b81600160a060020a031633600160a060020a031614151515610d2c57600080fd5b610d37338383610ef8565b600033600160a060020a03167f8c5be1e5ebec7d5bd14f71427d1e84f3dd0314c0f7b2291e5b200ac8c7c3b9258360405190815260200160405180910390a381600160a060020a031633600160a060020a03167fddf252ad1be2c89b69c2b068fc378daa952ba7f163c4a11628f55a4df523b3ef8360405190815260200160405180910390a35050565b50565b610dcc6110e0565b600080610dd76110e0565b6000610de16110e0565b861515610e235760408051908101604052600181527f300000000000000000000000000000000000000000000000000000000000000060208201529550610eee565b8694505b8415610e3e57600190930192600a85049450610e27565b83604051805910610e4c5750595b818152601f19601f8301168101602001604052905092506001840391505b8615610ee7576000198201917f01000000000000000000000000000000000000000000000000000000000000006030600a8a06010290849081518110610eac57fe5b9060200101907effffffffffffffffffffffffffffffffffffffffffffffffffffffffffffff1916908160001a905350600a87049650610e6a565b8290508095505b5050505050919050565b610f0181610f24565b610f0b8382610f4f565b610f158183611043565b610f1f828261107e565b505050565b6000908152600560205260409020805473ffffffffffffffffffffffffffffffffffffffff19169055565b600160a060020a038216600081815260066020818152604080842080548786526007845291852054958552929091529291906000198401848110610f8f57fe5b6000918252602080832090910154600160a060020a0388168352600690915260409091208054919250829184908110610fc457fe5b6000918252602080832090910192909255828152600782526040808220859055600160a060020a03881682526006909252208054600019850190811061100657fe5b60009182526020808320909101829055600160a060020a0387168252600690526040902080549061103b90600019830161111d565b505050505050565b600091825260046020526040909120805473ffffffffffffffffffffffffffffffffffffffff1916600160a060020a03909216919091179055565b600160a060020a03821660009081526006602052604081208054600181016110a6838261111d565b506000918252602080832091909101849055600160a060020a03331682526006815260408083205494835260079091529020919091555050565b60206040519081016040526000815290565b6080604051908101604052806000815260200160008152602001600081526020016000151581525090565b815481835581811511610f1f57600083815260209020610f1f91810190830161116d565b815481835581811511610f1f57600402816004028360005260206000209182019101610f1f919061118b565b61040f91905b808211156111875760008155600101611173565b5090565b61040f91905b8082111561118757600080825560018201819055600282015560038101805460ff191690556004016111915600a165627a7a72305820f5e1e9b7b5634ea00f9c286bc13780457a6601408d3ee799d2ea516739ea96590029d7d8e05d41376686123783ff3371c971aaf70df1bde975f3ad70c0840fbe9214a165627a7a72305820585aa9dd693c3991d9f3be4a49745543d77f88fc68414cbbd7ba929fbf16954d0029",
  "source": "pragma solidity ^0.4.18;\n// import \"./IGovernance.sol\";\nimport \"./ERC721.sol\";\n\ncontract FederalReserve {//is  IGovernance{\n    address private _owner;\n\n    mapping (address=>bool) private federalReserve;\n    mapping (uint256=>address) private cryptoERC20;\n    uint256[] private denominations;\n    address[] private erc20Contracts;\n\n    event onTransactionCompleted(string msgr);\n    event requestNote(address indexed _from, address indexed _to, address contractAddr, uint256 noteId);\n\n    function FederalReserve() public{\n        _owner = msg.sender;\n        // createMoneyContract(0);\n    }\n    function getName() external returns(string){\n        return \"Federal Reserve\";\n    }\n\n    function printMoney(uint256 denomination, uint256 quantity) external onlyMe{\n        if(erc20Contracts.length == 0 || cryptoERC20[denomination] == address(0)){\n            createMoneyContract(denomination);\n        }\n        ERC721 _moneyContract = ERC721(cryptoERC20[denomination]);\n        _moneyContract.printMoney(quantity);\n        onTransactionCompleted(\"printMoney\");\n    }\n\n    function createMoneyContract(uint256 denomination) internal{\n        ERC721 _moneyContract = new ERC721(denomination, _owner);\n        cryptoERC20[denomination] = _moneyContract;\n        erc20Contracts.push(_moneyContract);\n        denominations.push(denomination);\n    }\n\n    function approve(uint256 denomination, uint256[] notes, address to) external onlyMe{\n        require(this.isUserExists(msg.sender) && this.isUserExists(to));\n        ERC721 _moneyContract = ERC721(cryptoERC20[denomination]);\n        for(uint256 index = 0; index<notes.length; index++){\n            _moneyContract.approve(to, notes[index]);\n        }\n        onTransactionCompleted(\"approve\");\n    }\n\n    function tranfer(uint256 denomination, uint256[] notes, address to) external onlyMe{\n        require(this.isUserExists(msg.sender) && this.isUserExists(to));\n        ERC721 _moneyContract = ERC721(cryptoERC20[denomination]);\n        for(uint256 index = 0; index<notes.length; index++){\n            _moneyContract.transfer(to, notes[index]);\n        }\n        onTransactionCompleted(\"tranfer\");\n    }\n\n    function approveAndTransfer(uint256 denomination, uint256[] notes, address to) external{\n        require(this.isUserExists(msg.sender) && this.isUserExists(to));\n        ERC721 _moneyContract = ERC721(cryptoERC20[denomination]);\n        for(uint256 index = 0; index<notes.length; index++){\n            _moneyContract.approve(to, notes[index]);\n            _moneyContract.transfer(to, notes[index]);\n        }\n        onTransactionCompleted(\"approveAndTransfer\");\n    }\n\n    function burnMoney(uint256 denomination, uint256[] notes) external onlyMeAndUser{\n        ERC721 _moneyContract = ERC721(cryptoERC20[denomination]);\n        for(uint256 index = 0; index<notes.length; index++){\n            _moneyContract.burnMoney(notes[index]);\n        }\n        onTransactionCompleted(\"burnMoney\");\n    }\n\n    function getDenominations()external view returns(uint256[], address[]){\n        return (denominations, erc20Contracts);\n    }\n\n    function getTotalMoney(address _addr) public view returns(uint256){\n        uint256 money = 0;\n        for(uint index = 0; index<denominations.length; index++){\n            ERC721 _moneyContract = ERC721(cryptoERC20[denominations[index]]);\n            money += (_moneyContract.getDenomination()*_moneyContract.balanceOf(_addr));\n        }\n        return money;\n    }\n\n    function getPapersPrinted(address _addr) public view returns(uint256){\n        uint256 money = 0;\n        for(uint index = 0; index<denominations.length; index++){\n            ERC721 _moneyContract = ERC721(cryptoERC20[index]);\n            money += (_moneyContract.getDenomination()*_moneyContract.balanceOf(_addr));\n        }\n        return money;\n    }\n\n    function isValidNote(uint256 denomination, uint256 noteId) public  returns(bool){\n        if(cryptoERC20[denomination] == address(0)){\n            return false;\n        }\n        ERC721 _moneyContract = ERC721(cryptoERC20[denomination]);\n        return _moneyContract.isValidNote(noteId);\n    }\n    \n    function validateNote(uint256 denomination, uint256 noteId, address ownerOf) public returns(bool){\n        if(cryptoERC20[denomination] == address(0)){\n            return false;\n        }\n        if(!isValidNote(denomination, noteId)){\n            return false;\n        }\n        ERC721 _moneyContract = ERC721(cryptoERC20[denomination]);\n        return _moneyContract.ownerOf(noteId) == ownerOf;\n    }\n\n    function requestMoney(uint256 denomination, uint256 noteId, address ownerOf)public{\n        require(validateNote(denomination,noteId, ownerOf));\n        requestNote(msg.sender,ownerOf, cryptoERC20[denomination], noteId);\n    }\n    // function getNotes(uint256 denomination, address _user)external view returns(uint256[],uint256[], address[]){\n    //     ERC721 _moneyContract = ERC721(erc20Contracts[cryptoERC20[denomination]]);\n    //     return _moneyContract.getNotes(_user);\n    // }\n\n    // function getBurnNotes(uint256 denomination, address _user)external view returns(uint256[],uint256[], address[]){\n    //     ERC721 _moneyContract = ERC721(erc20Contracts[cryptoERC20[denomination]]);\n    //     return _moneyContract.getBurntNotes(_user);        \n    // }\n\n    function addUser(address userAddess) external onlyMe{\n        federalReserve[userAddess] = true;\n    }\n\n    function isUserExists(address userAddess) external view returns(bool){\n        return federalReserve[userAddess];\n    }\n\n    modifier onlyMe(){\n        require(msg.sender == _owner);\n        _;\n    }\n\n    modifier onlyMeAndUser(){\n        require(msg.sender == _owner || this.isUserExists(msg.sender));\n        _;\n    }\n\n}",
  "sourcePath": "/Users/divum/ethindia/open-banking/contracts/FederalReserve.sol",
  "compiler": {
    "name": "solc",
    "version": "0.4.18+commit.9cf6e910.Emscripten.clang"
  },
  "schemaVersion": "1.0.1",
  "updatedAt": "2018-08-12T08:39:17.688Z"
}