{
  "contractName": "FederalReserve",
  "abi": [
    {
      "constant": true,
      "inputs": [
        {
          "name": "",
          "type": "uint256"
        }
      ],
      "name": "erc20Contracts",
      "outputs": [
        {
          "name": "",
          "type": "address"
        }
      ],
      "payable": false,
      "stateMutability": "view",
      "type": "function"
    },
    {
      "constant": false,
      "inputs": [],
      "name": "getName",
      "outputs": [
        {
          "name": "",
          "type": "string"
        }
      ],
      "payable": false,
      "stateMutability": "nonpayable",
      "type": "function"
    },
    {
      "constant": false,
      "inputs": [
        {
          "name": "denomination",
          "type": "uint256"
        },
        {
          "name": "notes",
          "type": "uint256[]"
        },
        {
          "name": "to",
          "type": "address"
        }
      ],
      "name": "approveAndTransfer",
      "outputs": [],
      "payable": false,
      "stateMutability": "nonpayable",
      "type": "function"
    },
    {
      "constant": false,
      "inputs": [
        {
          "name": "userAddess",
          "type": "address"
        }
      ],
      "name": "addUser",
      "outputs": [],
      "payable": false,
      "stateMutability": "nonpayable",
      "type": "function"
    },
    {
      "constant": true,
      "inputs": [
        {
          "name": "userAddess",
          "type": "address"
        }
      ],
      "name": "isUserExists",
      "outputs": [
        {
          "name": "",
          "type": "bool"
        }
      ],
      "payable": false,
      "stateMutability": "view",
      "type": "function"
    },
    {
      "constant": false,
      "inputs": [
        {
          "name": "denomination",
          "type": "uint256"
        },
        {
          "name": "notes",
          "type": "uint256[]"
        },
        {
          "name": "to",
          "type": "address"
        }
      ],
      "name": "tranfer",
      "outputs": [],
      "payable": false,
      "stateMutability": "nonpayable",
      "type": "function"
    },
    {
      "constant": false,
      "inputs": [
        {
          "name": "denomination",
          "type": "uint256"
        },
        {
          "name": "quantity",
          "type": "uint256"
        }
      ],
      "name": "printMoney",
      "outputs": [],
      "payable": false,
      "stateMutability": "nonpayable",
      "type": "function"
    },
    {
      "constant": false,
      "inputs": [
        {
          "name": "denomination",
          "type": "uint256"
        },
        {
          "name": "notes",
          "type": "uint256[]"
        },
        {
          "name": "to",
          "type": "address"
        }
      ],
      "name": "approve",
      "outputs": [],
      "payable": false,
      "stateMutability": "nonpayable",
      "type": "function"
    },
    {
      "constant": true,
      "inputs": [],
      "name": "getDenominations",
      "outputs": [
        {
          "name": "",
          "type": "uint256[]"
        },
        {
          "name": "",
          "type": "address[]"
        }
      ],
      "payable": false,
      "stateMutability": "view",
      "type": "function"
    },
    {
      "constant": false,
      "inputs": [
        {
          "name": "denomination",
          "type": "uint256"
        },
        {
          "name": "notes",
          "type": "uint256[]"
        }
      ],
      "name": "burnMoney",
      "outputs": [],
      "payable": false,
      "stateMutability": "nonpayable",
      "type": "function"
    },
    {
      "inputs": [],
      "payable": false,
      "stateMutability": "nonpayable",
      "type": "constructor"
    }
  ],
  "bytecode": "0x6060604052341561000f57600080fd5b60008054600160a060020a033316600160a060020a03199091161790556120048061003b6000396000f30060606040526004361061008a5763ffffffff60e060020a60003504166306c6948e811461008f57806317d7de7c146100c15780632cc4b3421461014b578063421b2d8b1461017b578063509222cd1461019a578063787fb768146101cd5780637d42289e146101fb5780638c9d147014610214578063d95a1c7614610242578063fdbafbbc146102ee575b600080fd5b341561009a57600080fd5b6100a5600435610310565b604051600160a060020a03909116815260200160405180910390f35b34156100cc57600080fd5b6100d4610338565b60405160208082528190810183818151815260200191508051906020019080838360005b838110156101105780820151838201526020016100f8565b50505050905090810190601f16801561013d5780820380516001836020036101000a031916815260200191505b509250505060405180910390f35b341561015657600080fd5b610179600480359060248035908101910135600160a060020a036044351661037a565b005b341561018657600080fd5b610179600160a060020a03600435166105b7565b34156101a557600080fd5b6101b9600160a060020a03600435166105f9565b604051901515815260200160405180910390f35b34156101d857600080fd5b610179600480359060248035908101910135600160a060020a0360443516610617565b341561020657600080fd5b6101796004356024356107ed565b341561021f57600080fd5b610179600480359060248035908101910135600160a060020a036044351661086f565b341561024d57600080fd5b610255610a45565b604051808060200180602001838103835285818151815260200191508051906020019060200280838360005b83811015610299578082015183820152602001610281565b50505050905001838103825284818151815260200191508051906020019060200280838360005b838110156102d85780820151838201526020016102c0565b5050505090500194505050505060405180910390f35b34156102f957600080fd5b610179600480359060248035908101910135610b0f565b600480548290811061031e57fe5b600091825260209091200154600160a060020a0316905081565b610340610d07565b60408051908101604052600f81527f4665646572616c20526573657276650000000000000000000000000000000000602082015290505b90565b60008030600160a060020a031663509222cd3360006040516020015260405160e060020a63ffffffff8416028152600160a060020a039091166004820152602401602060405180830381600087803b15156103d457600080fd5b6102c65a03f115156103e557600080fd5b505050604051805190508015610469575030600160a060020a031663509222cd8460006040516020015260405160e060020a63ffffffff8416028152600160a060020a039091166004820152602401602060405180830381600087803b151561044d57600080fd5b6102c65a03f1151561045e57600080fd5b505050604051805190505b151561047457600080fd5b60008681526002602052604090205460048054909190811061049257fe5b6000918252602082200154600160a060020a0316925090505b838110156105af57600160a060020a03821663095ea7b3848787858181106104cf57fe5b9050602002013560405160e060020a63ffffffff8516028152600160a060020a0390921660048301526024820152604401600060405180830381600087803b151561051957600080fd5b6102c65a03f1151561052a57600080fd5b505050600160a060020a03821663a9059cbb8487878581811061054957fe5b9050602002013560405160e060020a63ffffffff8516028152600160a060020a0390921660048301526024820152604401600060405180830381600087803b151561059357600080fd5b6102c65a03f115156105a457600080fd5b5050506001016104ab565b505050505050565b60005433600160a060020a039081169116146105d257600080fd5b600160a060020a03166000908152600160208190526040909120805460ff19169091179055565b600160a060020a031660009081526001602052604090205460ff1690565b60008054819033600160a060020a0390811691161461063557600080fd5b30600160a060020a031663509222cd3360006040516020015260405160e060020a63ffffffff8416028152600160a060020a039091166004820152602401602060405180830381600087803b151561068c57600080fd5b6102c65a03f1151561069d57600080fd5b505050604051805190508015610721575030600160a060020a031663509222cd8460006040516020015260405160e060020a63ffffffff8416028152600160a060020a039091166004820152602401602060405180830381600087803b151561070557600080fd5b6102c65a03f1151561071657600080fd5b505050604051805190505b151561072c57600080fd5b60008681526002602052604090205460048054909190811061074a57fe5b6000918252602082200154600160a060020a0316925090505b838110156105af57600160a060020a03821663a9059cbb8487878581811061078757fe5b9050602002013560405160e060020a63ffffffff8516028152600160a060020a0390921660048301526024820152604401600060405180830381600087803b15156107d157600080fd5b6102c65a03f115156107e257600080fd5b505050600101610763565b6000805433600160a060020a0390811691161461080957600080fd5b5060005b8181101561086a576004541580610854575060008381526002602052604081205460048054909190811061083d57fe5b600091825260209091200154600160a060020a0316145b156108625761086283610c62565b60010161080d565b505050565b60008054819033600160a060020a0390811691161461088d57600080fd5b30600160a060020a031663509222cd3360006040516020015260405160e060020a63ffffffff8416028152600160a060020a039091166004820152602401602060405180830381600087803b15156108e457600080fd5b6102c65a03f115156108f557600080fd5b505050604051805190508015610979575030600160a060020a031663509222cd8460006040516020015260405160e060020a63ffffffff8416028152600160a060020a039091166004820152602401602060405180830381600087803b151561095d57600080fd5b6102c65a03f1151561096e57600080fd5b505050604051805190505b151561098457600080fd5b6000868152600260205260409020546004805490919081106109a257fe5b6000918252602082200154600160a060020a0316925090505b838110156105af57600160a060020a03821663095ea7b3848787858181106109df57fe5b9050602002013560405160e060020a63ffffffff8516028152600160a060020a0390921660048301526024820152604401600060405180830381600087803b1515610a2957600080fd5b6102c65a03f11515610a3a57600080fd5b5050506001016109bb565b610a4d610d07565b610a55610d07565b6003600481805480602002602001604051908101604052809291908181526020018280548015610aa457602002820191906000526020600020905b815481526020019060010190808311610a90575b5050505050915080805480602002602001604051908101604052809291908181526020018280548015610b0057602002820191906000526020600020905b8154600160a060020a03168152600190910190602001808311610ae2575b50505050509050915091509091565b60008054819033600160a060020a0390811691161480610b9d575030600160a060020a031663509222cd3360006040516020015260405160e060020a63ffffffff8416028152600160a060020a039091166004820152602401602060405180830381600087803b1515610b8157600080fd5b6102c65a03f11515610b9257600080fd5b505050604051805190505b1515610ba857600080fd5b600085815260026020526040902054600480549091908110610bc657fe5b6000918252602082200154600160a060020a0316925090505b82811015610c5b57600160a060020a03821663fed69f02858584818110610c0257fe5b9050602002013560405160e060020a63ffffffff84160281526004810191909152602401600060405180830381600087803b1515610c3f57600080fd5b6102c65a03f11515610c5057600080fd5b505050600101610bdf565b5050505050565b600081610c6d610d19565b908152602001604051809103906000f0801515610c8957600080fd5b6004805460008581526002602052604090208190559192509060018101610cb08382610d29565b506000918252602090912001805473ffffffffffffffffffffffffffffffffffffffff1916600160a060020a0383161790556003805460018101610cf48382610d29565b5060009182526020909120019190915550565b60206040519081016040526000815290565b60405161127280610d6783390190565b81548183558181151161086a5760008381526020902061086a91810190830161037791905b80821115610d625760008155600101610d4e565b509056006060604052341561000f57600080fd5b6040516020806112728339810160405280805160008054600160a060020a033316600160a060020a0319909116179055600155505061121f806100536000396000f3006060604052600436106100b65763ffffffff60e060020a60003504166306fdde0381146100bb578063095ea7b31461014557806310a506901461016957806318160ddd1461026657806323b872dd1461028b578063425d86d5146102b35780636352211e146102d25780636c3109dd1461030457806370a082311461031a57806395d89b4114610339578063a6c47eb11461034c578063a9059cbb14610376578063b2e6ceeb14610398578063fed69f0214610398575b600080fd5b34156100c657600080fd5b6100ce6103ae565b60405160208082528190810183818151815260200191508051906020019080838360005b8381101561010a5780820151838201526020016100f2565b50505050905090810190601f1680156101375780820380516001836020036101000a031916815260200191505b509250505060405180910390f35b341561015057600080fd5b610167600160a060020a03600435166024356103c7565b005b341561017457600080fd5b610188600160a060020a03600435166104d8565b60405180806020018060200180602001848103845287818151815260200191508051906020019060200280838360005b838110156101d05780820151838201526020016101b8565b50505050905001848103835286818151815260200191508051906020019060200280838360005b8381101561020f5780820151838201526020016101f7565b50505050905001848103825285818151815260200191508051906020019060200280838360005b8381101561024e578082015183820152602001610236565b50505050905001965050505050505060405180910390f35b341561027157600080fd5b610279610767565b60405190815260200160405180910390f35b341561029657600080fd5b610167600160a060020a036004358116906024351660443561076d565b34156102be57600080fd5b610188600160a060020a036004351661095f565b34156102dd57600080fd5b6102e860043561097e565b604051600160a060020a03909116815260200160405180910390f35b341561030f57600080fd5b610167600435610999565b341561032557600080fd5b610279600160a060020a0360043516610b37565b341561034457600080fd5b6100ce610b52565b341561035757600080fd5b610362600435610b93565b604051901515815260200160405180910390f35b341561038157600080fd5b610167600160a060020a0360043516602435610c11565b34156103a357600080fd5b610167600435610dc7565b6103b6611115565b6103c1600154610dca565b90505b90565b60008181526003602052604090205433600160a060020a039081169116146103ee57600080fd5b81600160a060020a031633600160a060020a03161415151561040f57600080fd5b60008181526003602052604090205433600160a060020a03908116911614801561045b5750600780548290811061044257fe5b600091825260209091206003600490920201015460ff16155b156104d45760008181526004602052604090819020805473ffffffffffffffffffffffffffffffffffffffff1916600160a060020a038581169182179092559133909116907f8c5be1e5ebec7d5bd14f71427d1e84f3dd0314c0f7b2291e5b200ac8c7c3b9259084905190815260200160405180910390a35b5050565b6104e0611115565b6104e8611115565b6104f0611115565b6104f8611115565b6000610502611115565b61050a611115565b610512611115565b600061051c611127565b600160a060020a038b16151561058457600980548060200260200160405190810160405280929190818152602001828054801561057857602002820191906000526020600020905b815481526020019060010190808311610564575b505050505096506105fb565b600560008c600160a060020a0316600160a060020a031681526020019081526020016000208054806020026020016040519081016040528092919081815260200182805480156105f357602002820191906000526020600020905b8154815260200190600101908083116105df575b505050505096505b865195508560405180591061060d5750595b908082528060200260200182016040525094508560405180591061062e5750595b908082528060200260200182016040525093508560405180591061064f5750595b90808252806020026020018201604052509250600091505b8582101561075757600760098381548110151561068057fe5b6000918252602090912001548154811061069657fe5b906000526020600020906004020160806040519081016040908152825482526001830154602083015260028301549082015260039091015460ff1615156060820152905080518583815181106106e857fe5b60209081029091010152604081015184838151811061070357fe5b6020908102909101810191909152600083815260039091526040902054600160a060020a031683838151811061073557fe5b600160a060020a03909216602092830290910190910152600190910190610667565b5092999198509650945050505050565b60075490565b80600030600160a060020a0316636352211e83836040516020015260405160e060020a63ffffffff84160281526004810191909152602401602060405180830381600087803b15156107be57600080fd5b6102c65a03f115156107cf57600080fd5b50505060405180519050600160a060020a0316141515156107ef57600080fd5b60008281526004602052604090205433600160a060020a0390811691161461081657600080fd5b83600160a060020a031630600160a060020a0316636352211e8460006040516020015260405160e060020a63ffffffff84160281526004810191909152602401602060405180830381600087803b151561086f57600080fd5b6102c65a03f1151561088057600080fd5b50505060405180519050600160a060020a03161480156108a85750600160a060020a03841615155b15156108b357600080fd5b600160a060020a03831615156108c857600080fd5b6108d3848484610efe565b600084600160a060020a03167f8c5be1e5ebec7d5bd14f71427d1e84f3dd0314c0f7b2291e5b200ac8c7c3b9258460405190815260200160405180910390a382600160a060020a031684600160a060020a03167fddf252ad1be2c89b69c2b068fc378daa952ba7f163c4a11628f55a4df523b3ef8460405190815260200160405180910390a350505050565b610967611115565b61096f611115565b610977611115565b9193909250565b600090815260036020526040902054600160a060020a031690565b600080548190819033600160a060020a039081169116146109b957600080fd5b600092505b83831015610afe5760078054925082600181016109db8382611152565b9160005260206000209060040201600060806040519081016040908152868252426020830181905290820152600060608201529190508151815560208201518160010155604082015181600201556060820151600391909101805460ff191691151591909117905550505033600160a060020a031660009081526005602052604090208054908160018101610a70838261117e565b506000918252602080832091909101849055838252600381526040808320805473ffffffffffffffffffffffffffffffffffffffff191633600160a060020a0316179055600690915290208190556009805460018101610ad0838261117e565b506000918252602080832091909101849055600754848352600a9091526040909120556001909201916109be565b7f07883703ed0e86588a40d76551c92f8a4b329e3bf19765e0e6749473c1a846658460405190815260200160405180910390a150505050565b600160a060020a031660009081526005602052604090205490565b610b5a611115565b60408051908101604052600181527f24000000000000000000000000000000000000000000000000000000000000006020820152905090565b60008030600160a060020a0316636352211e84836040516020015260405160e060020a63ffffffff84160281526004810191909152602401602060405180830381600087803b1515610be457600080fd5b6102c65a03f11515610bf557600080fd5b50505060405180519050600160a060020a031614159050919050565b80600030600160a060020a0316636352211e83836040516020015260405160e060020a63ffffffff84160281526004810191909152602401602060405180830381600087803b1515610c6257600080fd5b6102c65a03f11515610c7357600080fd5b50505060405180519050600160a060020a031614151515610c9357600080fd5b33600160a060020a031630600160a060020a0316636352211e8460006040516020015260405160e060020a63ffffffff84160281526004810191909152602401602060405180830381600087803b1515610cec57600080fd5b6102c65a03f11515610cfd57600080fd5b50505060405180519050600160a060020a0316141515610d1c57600080fd5b600160a060020a0383161515610d3157600080fd5b610d3c338484610efe565b600033600160a060020a03167f8c5be1e5ebec7d5bd14f71427d1e84f3dd0314c0f7b2291e5b200ac8c7c3b9258460405190815260200160405180910390a382600160a060020a031633600160a060020a03167fddf252ad1be2c89b69c2b068fc378daa952ba7f163c4a11628f55a4df523b3ef8460405190815260200160405180910390a3505050565b50565b610dd2611115565b600080610ddd611115565b6000610de7611115565b861515610e295760408051908101604052600181527f300000000000000000000000000000000000000000000000000000000000000060208201529550610ef4565b8694505b8415610e4457600190930192600a85049450610e2d565b83604051805910610e525750595b818152601f19601f8301168101602001604052905092506001840391505b8615610eed576000198201917f01000000000000000000000000000000000000000000000000000000000000006030600a8a06010290849081518110610eb257fe5b9060200101907effffffffffffffffffffffffffffffffffffffffffffffffffffffffffffff1916908160001a905350600a87049650610e70565b8290508095505b5050505050919050565b610f0781610f2a565b610f118382610f55565b610f1b8183611049565b610f258282611084565b505050565b6000908152600460205260409020805473ffffffffffffffffffffffffffffffffffffffff19169055565b600160a060020a038216600081815260056020818152604080842080548786526006845291852054958552929091529291906000198401848110610f9557fe5b6000918252602080832090910154600160a060020a0388168352600590915260409091208054919250829184908110610fca57fe5b6000918252602080832090910192909255828152600682526040808220859055600160a060020a03881682526005909252208054600019850190811061100c57fe5b60009182526020808320909101829055600160a060020a0387168252600590526040902080549061104190600019830161117e565b505050505050565b600091825260036020526040909120805473ffffffffffffffffffffffffffffffffffffffff1916600160a060020a03909216919091179055565b600160a060020a03821660009081526005602052604081208054600181016110ac838261117e565b506000918252602080832091909101849055600160a060020a03338116835260059091526040808320549186168352909120805491925090600181016110f2838261117e565b506000918252602080832091909101849055928152600690925260409091205550565b60206040519081016040526000815290565b6080604051908101604052806000815260200160008152602001600081526020016000151581525090565b815481835581811511610f2557600402816004028360005260206000209182019101610f2591906111a2565b815481835581811511610f2557600083815260209020610f259181019083016111d9565b6103c491905b808211156111d557600080825560018201819055600282015560038101805460ff191690556004016111a8565b5090565b6103c491905b808211156111d557600081556001016111df5600a165627a7a7230582024ac619c149f052915febee1cd41737887282f9b2659362e8ba345f2a6405f890029a165627a7a72305820cf8106cbdc6eb0a5c8bbbe5de60e0690c291e9fa0c22823784727caee2f600b20029",
  "source": "pragma solidity ^0.4.18;\n// import \"./IGovernance.sol\";\nimport \"./ERC721.sol\";\n\ncontract FederalReserve {//is  IGovernance{\n    address private _owner;\n\n    mapping (address=>bool) private federalReserve;\n    mapping (uint256=>uint256) private cryptoERC20;\n    uint[] private denominations;\n    address[] public erc20Contracts;\n    function FederalReserve() public{\n        _owner = msg.sender;\n    }\n    function getName() external returns(string){\n        return \"Federal Reserve\";\n    }\n\n    function printMoney(uint256 denomination, uint256 quantity) external onlyMe{\n        for(uint index = 0; index<quantity; index++){\n            if(erc20Contracts.length == 0 || erc20Contracts[cryptoERC20[denomination]] == address(0)){\n                createMoneyContract(denomination);\n            }\n            // ERC721 _moneyContract = ERC721(cryptoERC20[denomination]);\n            // _moneyContract.printMoney(quantity);\n        }\n    }\n\n    function createMoneyContract(uint256 denomination) internal{\n        ERC721 _moneyContract = new ERC721(denomination);\n        cryptoERC20[denomination] = erc20Contracts.length;\n        erc20Contracts.push(_moneyContract);\n        denominations.push(denomination);\n    }\n\n    function approve(uint256 denomination, uint256[] notes, address to) external onlyMe{\n        require(this.isUserExists(msg.sender) && this.isUserExists(to));\n        ERC721 _moneyContract = ERC721(erc20Contracts[cryptoERC20[denomination]]);\n        for(uint256 index = 0; index<notes.length; index++){\n            _moneyContract.approve(to, notes[index]);\n        }\n    }\n\n    function tranfer(uint256 denomination, uint256[] notes, address to) external onlyMe{\n        require(this.isUserExists(msg.sender) && this.isUserExists(to));\n        ERC721 _moneyContract = ERC721(erc20Contracts[cryptoERC20[denomination]]);\n        for(uint256 index = 0; index<notes.length; index++){\n            _moneyContract.transfer(to, notes[index]);\n        }\n    }\n\n    function approveAndTransfer(uint256 denomination, uint256[] notes, address to) external{\n        require(this.isUserExists(msg.sender) && this.isUserExists(to));\n        ERC721 _moneyContract = ERC721(erc20Contracts[cryptoERC20[denomination]]);\n        for(uint256 index = 0; index<notes.length; index++){\n            _moneyContract.approve(to, notes[index]);\n            _moneyContract.transfer(to, notes[index]);\n        }\n    }\n\n    function burnMoney(uint256 denomination, uint256[] notes) external onlyMeAndUser{\n        ERC721 _moneyContract = ERC721(erc20Contracts[cryptoERC20[denomination]]);\n        for(uint256 index = 0; index<notes.length; index++){\n            _moneyContract.burnMoney(notes[index]);\n        }\n    }\n\n    function getDenominations()external view returns(uint256[], address[]){\n        return (denominations, erc20Contracts);\n    }\n\n    // function getNotes(uint256 denomination, address _user)external view returns(uint256[],uint256[], address[]){\n    //     ERC721 _moneyContract = ERC721(erc20Contracts[cryptoERC20[denomination]]);\n    //     return _moneyContract.getNotes(_user);\n    // }\n\n    // function getBurnNotes(uint256 denomination, address _user)external view returns(uint256[],uint256[], address[]){\n    //     ERC721 _moneyContract = ERC721(erc20Contracts[cryptoERC20[denomination]]);\n    //     return _moneyContract.getBurntNotes(_user);        \n    // }\n\n    function addUser(address userAddess) external onlyMe{\n        federalReserve[userAddess] = true;\n    }\n\n    function isUserExists(address userAddess) external view returns(bool){\n        return federalReserve[userAddess];\n    }\n\n    modifier onlyMe(){\n        require(msg.sender == _owner);\n        _;\n    }\n\n    modifier onlyMeAndUser(){\n        require(msg.sender == _owner || this.isUserExists(msg.sender));\n        _;\n    }\n\n}",
  "sourcePath": "/Users/divum/ethindia/open-banking/contracts/FederalReserve.sol",
  "compiler": {
    "name": "solc",
    "version": "0.4.18+commit.9cf6e910.Emscripten.clang"
  },
  "schemaVersion": "1.0.1",
  "updatedAt": "2018-08-11T17:20:54.421Z"
}