{
  "contractName": "FederalReserve",
  "abi": [
    {
      "constant": true,
      "inputs": [
        {
          "name": "_addr",
          "type": "address"
        }
      ],
      "name": "getPapersPrinted",
      "outputs": [
        {
          "name": "",
          "type": "uint256"
        }
      ],
      "payable": false,
      "stateMutability": "view",
      "type": "function"
    },
    {
      "constant": false,
      "inputs": [],
      "name": "getName",
      "outputs": [
        {
          "name": "",
          "type": "string"
        }
      ],
      "payable": false,
      "stateMutability": "nonpayable",
      "type": "function"
    },
    {
      "constant": true,
      "inputs": [
        {
          "name": "_addr",
          "type": "address"
        }
      ],
      "name": "getTotalMoney",
      "outputs": [
        {
          "name": "",
          "type": "uint256"
        }
      ],
      "payable": false,
      "stateMutability": "view",
      "type": "function"
    },
    {
      "constant": false,
      "inputs": [
        {
          "name": "denomination",
          "type": "uint256"
        },
        {
          "name": "notes",
          "type": "uint256[]"
        },
        {
          "name": "to",
          "type": "address"
        }
      ],
      "name": "approveAndTransfer",
      "outputs": [],
      "payable": false,
      "stateMutability": "nonpayable",
      "type": "function"
    },
    {
      "constant": false,
      "inputs": [
        {
          "name": "denomination",
          "type": "uint256"
        },
        {
          "name": "noteId",
          "type": "uint256"
        },
        {
          "name": "ownerOf",
          "type": "address"
        }
      ],
      "name": "requestMoney",
      "outputs": [],
      "payable": false,
      "stateMutability": "nonpayable",
      "type": "function"
    },
    {
      "constant": false,
      "inputs": [
        {
          "name": "denomination",
          "type": "uint256"
        },
        {
          "name": "noteId",
          "type": "uint256"
        }
      ],
      "name": "isValidNote",
      "outputs": [
        {
          "name": "",
          "type": "bool"
        }
      ],
      "payable": false,
      "stateMutability": "nonpayable",
      "type": "function"
    },
    {
      "constant": false,
      "inputs": [
        {
          "name": "userAddess",
          "type": "address"
        }
      ],
      "name": "addUser",
      "outputs": [],
      "payable": false,
      "stateMutability": "nonpayable",
      "type": "function"
    },
    {
      "constant": false,
      "inputs": [
        {
          "name": "denomination",
          "type": "uint256"
        },
        {
          "name": "noteId",
          "type": "uint256"
        },
        {
          "name": "ownerOf",
          "type": "address"
        }
      ],
      "name": "validateNote",
      "outputs": [
        {
          "name": "",
          "type": "bool"
        }
      ],
      "payable": false,
      "stateMutability": "nonpayable",
      "type": "function"
    },
    {
      "constant": true,
      "inputs": [
        {
          "name": "userAddess",
          "type": "address"
        }
      ],
      "name": "isUserExists",
      "outputs": [
        {
          "name": "",
          "type": "bool"
        }
      ],
      "payable": false,
      "stateMutability": "view",
      "type": "function"
    },
    {
      "constant": false,
      "inputs": [
        {
          "name": "denomination",
          "type": "uint256"
        },
        {
          "name": "notes",
          "type": "uint256[]"
        },
        {
          "name": "to",
          "type": "address"
        }
      ],
      "name": "tranfer",
      "outputs": [],
      "payable": false,
      "stateMutability": "nonpayable",
      "type": "function"
    },
    {
      "constant": false,
      "inputs": [
        {
          "name": "denomination",
          "type": "uint256"
        },
        {
          "name": "quantity",
          "type": "uint256"
        }
      ],
      "name": "printMoney",
      "outputs": [],
      "payable": false,
      "stateMutability": "nonpayable",
      "type": "function"
    },
    {
      "constant": false,
      "inputs": [
        {
          "name": "denomination",
          "type": "uint256"
        },
        {
          "name": "notes",
          "type": "uint256[]"
        },
        {
          "name": "to",
          "type": "address"
        }
      ],
      "name": "approve",
      "outputs": [],
      "payable": false,
      "stateMutability": "nonpayable",
      "type": "function"
    },
    {
      "constant": true,
      "inputs": [],
      "name": "getDenominations",
      "outputs": [
        {
          "name": "",
          "type": "uint256[]"
        },
        {
          "name": "",
          "type": "address[]"
        }
      ],
      "payable": false,
      "stateMutability": "view",
      "type": "function"
    },
    {
      "constant": false,
      "inputs": [
        {
          "name": "denomination",
          "type": "uint256"
        },
        {
          "name": "notes",
          "type": "uint256[]"
        }
      ],
      "name": "burnMoney",
      "outputs": [],
      "payable": false,
      "stateMutability": "nonpayable",
      "type": "function"
    },
    {
      "inputs": [],
      "payable": false,
      "stateMutability": "nonpayable",
      "type": "constructor"
    },
    {
      "anonymous": false,
      "inputs": [
        {
          "indexed": false,
          "name": "msgr",
          "type": "string"
        }
      ],
      "name": "onTransactionCompleted",
      "type": "event"
    },
    {
      "anonymous": false,
      "inputs": [
        {
          "indexed": true,
          "name": "_from",
          "type": "address"
        },
        {
          "indexed": true,
          "name": "_to",
          "type": "address"
        },
        {
          "indexed": false,
          "name": "contractAddr",
          "type": "address"
        }
      ],
      "name": "requestNote",
      "type": "event"
    }
  ],
  "bytecode": "0x6060604052341561000f57600080fd5b60008054600160a060020a033316600160a060020a03199091161790556126f38061003b6000396000f3006060604052600436106100b65763ffffffff60e060020a60003504166314f1d91081146100bb57806317d7de7c146100ec57806324fbfc94146101765780632cc4b3421461019557806331b97120146101c5578063384e230f146101ea578063421b2d8b146102175780634506ba0d14610236578063509222cd1461025b578063787fb7681461027a5780637d42289e146102a85780638c9d1470146102c1578063d95a1c76146102ef578063fdbafbbc1461039b575b600080fd5b34156100c657600080fd5b6100da600160a060020a03600435166103bd565b60405190815260200160405180910390f35b34156100f757600080fd5b6100ff6104cc565b60405160208082528190810183818151815260200191508051906020019080838360005b8381101561013b578082015183820152602001610123565b50505050905090810190601f1680156101685780820380516001836020036101000a031916815260200191505b509250505060405180910390f35b341561018157600080fd5b6100da600160a060020a036004351661050e565b34156101a057600080fd5b6101c3600480359060248035908101910135600160a060020a0360443516610636565b005b34156101d057600080fd5b6101c3600435602435600160a060020a03604435166108ab565b34156101f557600080fd5b610203600435602435610924565b604051901515815260200160405180910390f35b341561022257600080fd5b6101c3600160a060020a03600435166109d1565b341561024157600080fd5b610203600435602435600160a060020a0360443516610a13565b341561026657600080fd5b610203600160a060020a0360043516610aec565b341561028557600080fd5b6101c3600480359060248035908101910135600160a060020a0360443516610b0a565b34156102b357600080fd5b6101c3600435602435610d20565b34156102cc57600080fd5b6101c3600480359060248035908101910135600160a060020a0360443516610e34565b34156102fa57600080fd5b61030261104a565b604051808060200180602001838103835285818151815260200191508051906020019060200280838360005b8381101561034657808201518382015260200161032e565b50505050905001838103825284818151815260200191508051906020019060200280838360005b8381101561038557808201518382015260200161036d565b5050505090500194505050505060405180910390f35b34156103a657600080fd5b6101c3600480359060248035908101910135611114565b60008080805b6003548210156104c3575060008181526002602052604080822054600160a060020a03169182916370a08231918891516020015260405160e060020a63ffffffff8416028152600160a060020a039091166004820152602401602060405180830381600087803b151561043557600080fd5b6102c65a03f1151561044657600080fd5b5050506040518051905081600160a060020a0316631fc601c96000604051602001526040518163ffffffff1660e060020a028152600401602060405180830381600087803b151561049657600080fd5b6102c65a03f115156104a757600080fd5b50505060405180519050028301925081806001019250506103c3565b50909392505050565b6104d4611382565b60408051908101604052600f81527f4665646572616c20526573657276650000000000000000000000000000000000602082015290505b90565b60008080805b6003548210156104c3576002600060038481548110151561053157fe5b600091825260208083209091015483528201929092526040908101822054600160a060020a0316925082916370a0823191889190516020015260405160e060020a63ffffffff8416028152600160a060020a039091166004820152602401602060405180830381600087803b15156105a857600080fd5b6102c65a03f115156105b957600080fd5b5050506040518051905081600160a060020a0316631fc601c96000604051602001526040518163ffffffff1660e060020a028152600401602060405180830381600087803b151561060957600080fd5b6102c65a03f1151561061a57600080fd5b5050506040518051905002830192508180600101925050610514565b60008030600160a060020a031663509222cd3360006040516020015260405160e060020a63ffffffff8416028152600160a060020a039091166004820152602401602060405180830381600087803b151561069057600080fd5b6102c65a03f115156106a157600080fd5b505050604051805190508015610725575030600160a060020a031663509222cd8460006040516020015260405160e060020a63ffffffff8416028152600160a060020a039091166004820152602401602060405180830381600087803b151561070957600080fd5b6102c65a03f1151561071a57600080fd5b505050604051805190505b151561073057600080fd5b5050600084815260026020526040812054600160a060020a0316905b8381101561085057600160a060020a03821663095ea7b38487878581811061077057fe5b9050602002013560405160e060020a63ffffffff8516028152600160a060020a0390921660048301526024820152604401600060405180830381600087803b15156107ba57600080fd5b6102c65a03f115156107cb57600080fd5b505050600160a060020a03821663a9059cbb848787858181106107ea57fe5b9050602002013560405160e060020a63ffffffff8516028152600160a060020a0390921660048301526024820152604401600060405180830381600087803b151561083457600080fd5b6102c65a03f1151561084557600080fd5b50505060010161074c565b6000805160206126a883398151915260405160208082526012908201527f617070726f7665416e645472616e7366657200000000000000000000000000006040808301919091526060909101905180910390a1505050505050565b6108b6838383610a13565b15156108c157600080fd5b6000838152600260205260409081902054600160a060020a0380841692338216927fd48dcb6eb637b12b90ea303629a97a9072aed9a56f4b0c4020a6df30fa183c5192169051600160a060020a03909116815260200160405180910390a3505050565b6000828152600260205260408120548190600160a060020a0316151561094d57600091506109ca565b5060008381526002602052604080822054600160a060020a031691829163a6c47eb1918691516020015260405160e060020a63ffffffff84160281526004810191909152602401602060405180830381600087803b15156109ad57600080fd5b6102c65a03f115156109be57600080fd5b50505060405180519250505b5092915050565b60005433600160a060020a039081169116146109ec57600080fd5b600160a060020a03166000908152600160208190526040909120805460ff19169091179055565b6000838152600260205260408120548190600160a060020a03161515610a3c5760009150610ae4565b610a468585610924565b1515610a555760009150610ae4565b5060008481526002602052604080822054600160a060020a0390811692908516918391636352211e91889190516020015260405160e060020a63ffffffff84160281526004810191909152602401602060405180830381600087803b1515610abc57600080fd5b6102c65a03f11515610acd57600080fd5b50505060405180519050600160a060020a03161491505b509392505050565b600160a060020a031660009081526001602052604090205460ff1690565b60008054819033600160a060020a03908116911614610b2857600080fd5b30600160a060020a031663509222cd3360006040516020015260405160e060020a63ffffffff8416028152600160a060020a039091166004820152602401602060405180830381600087803b1515610b7f57600080fd5b6102c65a03f11515610b9057600080fd5b505050604051805190508015610c14575030600160a060020a031663509222cd8460006040516020015260405160e060020a63ffffffff8416028152600160a060020a039091166004820152602401602060405180830381600087803b1515610bf857600080fd5b6102c65a03f11515610c0957600080fd5b505050604051805190505b1515610c1f57600080fd5b5050600084815260026020526040812054600160a060020a0316905b83811015610cc557600160a060020a03821663a9059cbb84878785818110610c5f57fe5b9050602002013560405160e060020a63ffffffff8516028152600160a060020a0390921660048301526024820152604401600060405180830381600087803b1515610ca957600080fd5b6102c65a03f11515610cba57600080fd5b505050600101610c3b565b6000805160206126a883398151915260405160208082526007908201527f7472616e666572000000000000000000000000000000000000000000000000006040808301919091526060909101905180910390a1505050505050565b6000805433600160a060020a03908116911614610d3c57600080fd5b6004541580610d605750600083815260026020526040902054600160a060020a0316155b15610d6e57610d6e8361129f565b506000828152600260205260409081902054600160a060020a0316908190636c3109dd9084905160e060020a63ffffffff84160281526004810191909152602401600060405180830381600087803b1515610dc857600080fd5b6102c65a03f11515610dd957600080fd5b5050506000805160206126a88339815191526040516020808252600a908201527f7072696e744d6f6e6579000000000000000000000000000000000000000000006040808301919091526060909101905180910390a1505050565b60008054819033600160a060020a03908116911614610e5257600080fd5b30600160a060020a031663509222cd3360006040516020015260405160e060020a63ffffffff8416028152600160a060020a039091166004820152602401602060405180830381600087803b1515610ea957600080fd5b6102c65a03f11515610eba57600080fd5b505050604051805190508015610f3e575030600160a060020a031663509222cd8460006040516020015260405160e060020a63ffffffff8416028152600160a060020a039091166004820152602401602060405180830381600087803b1515610f2257600080fd5b6102c65a03f11515610f3357600080fd5b505050604051805190505b1515610f4957600080fd5b5050600084815260026020526040812054600160a060020a0316905b83811015610fef57600160a060020a03821663095ea7b384878785818110610f8957fe5b9050602002013560405160e060020a63ffffffff8516028152600160a060020a0390921660048301526024820152604401600060405180830381600087803b1515610fd357600080fd5b6102c65a03f11515610fe457600080fd5b505050600101610f65565b6000805160206126a883398151915260405160208082526007908201527f617070726f7665000000000000000000000000000000000000000000000000006040808301919091526060909101905180910390a1505050505050565b611052611382565b61105a611382565b60036004818054806020026020016040519081016040528092919081815260200182805480156110a957602002820191906000526020600020905b815481526020019060010190808311611095575b505050505091508080548060200260200160405190810160405280929190818152602001828054801561110557602002820191906000526020600020905b8154600160a060020a031681526001909101906020018083116110e7575b50505050509050915091509091565b60008054819033600160a060020a03908116911614806111a2575030600160a060020a031663509222cd3360006040516020015260405160e060020a63ffffffff8416028152600160a060020a039091166004820152602401602060405180830381600087803b151561118657600080fd5b6102c65a03f1151561119757600080fd5b505050604051805190505b15156111ad57600080fd5b5050600083815260026020526040812054600160a060020a0316905b8281101561124557600160a060020a03821663fed69f028585848181106111ec57fe5b9050602002013560405160e060020a63ffffffff84160281526004810191909152602401600060405180830381600087803b151561122957600080fd5b6102c65a03f1151561123a57600080fd5b5050506001016111c9565b6000805160206126a883398151915260405160208082526009908201527f6275726e4d6f6e657900000000000000000000000000000000000000000000006040808301919091526060909101905180910390a15050505050565b600080548290600160a060020a03166112b6611394565b918252600160a060020a0316602082015260409081019051809103906000f08015156112e157600080fd5b6000838152600260205260409020805473ffffffffffffffffffffffffffffffffffffffff1916600160a060020a03831617905560048054919250906001810161132b83826113a4565b506000918252602090912001805473ffffffffffffffffffffffffffffffffffffffff1916600160a060020a038316179055600380546001810161136f83826113a4565b5060009182526020909120019190915550565b60206040519081016040526000815290565b6040516112bc806113ec83390190565b8154818355818115116113c8576000838152602090206113c89181019083016113cd565b505050565b61050b91905b808211156113e757600081556001016113d3565b509056006060604052341561000f57600080fd5b6040516040806112bc833981016040528080519190602001805160008054600160a060020a03928316600160a060020a031991821617909155600380543390931692909116919091179055505060015561124e8061006e6000396000f3006060604052600436106100c15763ffffffff60e060020a60003504166306fdde0381146100c6578063095ea7b31461015057806310a506901461017457806318160ddd146102715780631fc601c91461029657806323b872dd146102a9578063425d86d5146102d15780636352211e146102f05780636c3109dd1461032257806370a082311461033857806395d89b4114610357578063a6c47eb11461036a578063a9059cbb14610394578063b2e6ceeb146103b6578063fed69f02146103b6575b600080fd5b34156100d157600080fd5b6100d96103cc565b60405160208082528190810183818151815260200191508051906020019080838360005b838110156101155780820151838201526020016100fd565b50505050905090810190601f1680156101425780820380516001836020036101000a031916815260200191505b509250505060405180910390f35b341561015b57600080fd5b610172600160a060020a03600435166024356103e5565b005b341561017f57600080fd5b610193600160a060020a03600435166104f6565b60405180806020018060200180602001848103845287818151815260200191508051906020019060200280838360005b838110156101db5780820151838201526020016101c3565b50505050905001848103835286818151815260200191508051906020019060200280838360005b8381101561021a578082015183820152602001610202565b50505050905001848103825285818151815260200191508051906020019060200280838360005b83811015610259578082015183820152602001610241565b50505050905001965050505050505060405180910390f35b341561027c57600080fd5b610284610785565b60405190815260200160405180910390f35b34156102a157600080fd5b61028461078b565b34156102b457600080fd5b610172600160a060020a0360043581169060243516604435610791565b34156102dc57600080fd5b610193600160a060020a0360043516610983565b34156102fb57600080fd5b6103066004356109a2565b604051600160a060020a03909116815260200160405180910390f35b341561032d57600080fd5b6101726004356109bd565b341561034357600080fd5b610284600160a060020a0360043516610b66565b341561036257600080fd5b6100d9610b81565b341561037557600080fd5b610380600435610bc2565b604051901515815260200160405180910390f35b341561039f57600080fd5b610172600160a060020a0360043516602435610c40565b34156103c157600080fd5b610172600435610df6565b6103d4611144565b6103df600154610df9565b90505b90565b60008181526004602052604090205433600160a060020a0390811691161461040c57600080fd5b81600160a060020a031633600160a060020a03161415151561042d57600080fd5b60008181526004602052604090205433600160a060020a0390811691161480156104795750600880548290811061046057fe5b600091825260209091206003600490920201015460ff16155b156104f25760008181526005602052604090819020805473ffffffffffffffffffffffffffffffffffffffff1916600160a060020a038581169182179092559133909116907f8c5be1e5ebec7d5bd14f71427d1e84f3dd0314c0f7b2291e5b200ac8c7c3b9259084905190815260200160405180910390a35b5050565b6104fe611144565b610506611144565b61050e611144565b610516611144565b6000610520611144565b610528611144565b610530611144565b600061053a611156565b600160a060020a038b1615156105a257600a80548060200260200160405190810160405280929190818152602001828054801561059657602002820191906000526020600020905b815481526020019060010190808311610582575b50505050509650610619565b600660008c600160a060020a0316600160a060020a0316815260200190815260200160002080548060200260200160405190810160405280929190818152602001828054801561061157602002820191906000526020600020905b8154815260200190600101908083116105fd575b505050505096505b865195508560405180591061062b5750595b908082528060200260200182016040525094508560405180591061064c5750595b908082528060200260200182016040525093508560405180591061066d5750595b90808252806020026020018201604052509250600091505b85821015610775576008600a8381548110151561069e57fe5b600091825260209091200154815481106106b457fe5b906000526020600020906004020160806040519081016040908152825482526001830154602083015260028301549082015260039091015460ff16151560608201529050805185838151811061070657fe5b60209081029091010152604081015184838151811061072157fe5b6020908102909101810191909152600083815260049091526040902054600160a060020a031683838151811061075357fe5b600160a060020a03909216602092830290910190910152600190910190610685565b5092999198509650945050505050565b60085490565b60015490565b80600030600160a060020a0316636352211e83836040516020015260405160e060020a63ffffffff84160281526004810191909152602401602060405180830381600087803b15156107e257600080fd5b6102c65a03f115156107f357600080fd5b50505060405180519050600160a060020a03161415151561081357600080fd5b60008281526005602052604090205433600160a060020a0390811691161461083a57600080fd5b83600160a060020a031630600160a060020a0316636352211e8460006040516020015260405160e060020a63ffffffff84160281526004810191909152602401602060405180830381600087803b151561089357600080fd5b6102c65a03f115156108a457600080fd5b50505060405180519050600160a060020a03161480156108cc5750600160a060020a03841615155b15156108d757600080fd5b600160a060020a03831615156108ec57600080fd5b6108f7848484610f2d565b600084600160a060020a03167f8c5be1e5ebec7d5bd14f71427d1e84f3dd0314c0f7b2291e5b200ac8c7c3b9258460405190815260200160405180910390a382600160a060020a031684600160a060020a03167fddf252ad1be2c89b69c2b068fc378daa952ba7f163c4a11628f55a4df523b3ef8460405190815260200160405180910390a350505050565b61098b611144565b610993611144565b61099b611144565b9193909250565b600090815260046020526040902054600160a060020a031690565b6003546000908190819033600160a060020a039081169116146109df57600080fd5b600092505b83831015610b1c57600854600a80549193509060018101610a058382611181565b5060009182526020808320919091018490558154600160a060020a031682526006905260409020805491508160018101610a3f8382611181565b5060009182526020808320919091018490558154848352600482526040808420805473ffffffffffffffffffffffffffffffffffffffff1916600160a060020a0390931692909217909155600790915290208190556008805460018101610aa683826111a5565b9160005260206000209060040201600060806040519081016040908152868252426020830181905290820152600060608201529190508151815560208201518160010155604082015181600201556060820151600391909101805460ff19169115159190911790555050600192909201916109e4565b7f0f6798a560793a54c3bcfe86a93cde1e73087d944c0ea20544137d41213968853085604051600160a060020a03909216825260208201526040908101905180910390a150505050565b600160a060020a031660009081526006602052604090205490565b610b89611144565b60408051908101604052600181527f24000000000000000000000000000000000000000000000000000000000000006020820152905090565b60008030600160a060020a0316636352211e84836040516020015260405160e060020a63ffffffff84160281526004810191909152602401602060405180830381600087803b1515610c1357600080fd5b6102c65a03f11515610c2457600080fd5b50505060405180519050600160a060020a031614159050919050565b80600030600160a060020a0316636352211e83836040516020015260405160e060020a63ffffffff84160281526004810191909152602401602060405180830381600087803b1515610c9157600080fd5b6102c65a03f11515610ca257600080fd5b50505060405180519050600160a060020a031614151515610cc257600080fd5b33600160a060020a031630600160a060020a0316636352211e8460006040516020015260405160e060020a63ffffffff84160281526004810191909152602401602060405180830381600087803b1515610d1b57600080fd5b6102c65a03f11515610d2c57600080fd5b50505060405180519050600160a060020a0316141515610d4b57600080fd5b600160a060020a0383161515610d6057600080fd5b610d6b338484610f2d565b600033600160a060020a03167f8c5be1e5ebec7d5bd14f71427d1e84f3dd0314c0f7b2291e5b200ac8c7c3b9258460405190815260200160405180910390a382600160a060020a031633600160a060020a03167fddf252ad1be2c89b69c2b068fc378daa952ba7f163c4a11628f55a4df523b3ef8460405190815260200160405180910390a3505050565b50565b610e01611144565b600080610e0c611144565b6000610e16611144565b861515610e585760408051908101604052600181527f300000000000000000000000000000000000000000000000000000000000000060208201529550610f23565b8694505b8415610e7357600190930192600a85049450610e5c565b83604051805910610e815750595b818152601f19601f8301168101602001604052905092506001840391505b8615610f1c576000198201917f01000000000000000000000000000000000000000000000000000000000000006030600a8a06010290849081518110610ee157fe5b9060200101907effffffffffffffffffffffffffffffffffffffffffffffffffffffffffffff1916908160001a905350600a87049650610e9f565b8290508095505b5050505050919050565b610f3681610f59565b610f408382610f84565b610f4a8183611078565b610f5482826110b3565b505050565b6000908152600560205260409020805473ffffffffffffffffffffffffffffffffffffffff19169055565b600160a060020a038216600081815260066020818152604080842080548786526007845291852054958552929091529291906000198401848110610fc457fe5b6000918252602080832090910154600160a060020a0388168352600690915260409091208054919250829184908110610ff957fe5b6000918252602080832090910192909255828152600782526040808220859055600160a060020a03881682526006909252208054600019850190811061103b57fe5b60009182526020808320909101829055600160a060020a03871682526006905260409020805490611070906000198301611181565b505050505050565b600091825260046020526040909120805473ffffffffffffffffffffffffffffffffffffffff1916600160a060020a03909216919091179055565b600160a060020a03821660009081526006602052604081208054600181016110db8382611181565b506000918252602080832091909101849055600160a060020a03338116835260069091526040808320549186168352909120805491925090600181016111218382611181565b506000918252602080832091909101849055928152600790925260409091205550565b60206040519081016040526000815290565b6080604051908101604052806000815260200160008152602001600081526020016000151581525090565b815481835581811511610f5457600083815260209020610f549181019083016111d1565b815481835581811511610f5457600402816004028360005260206000209182019101610f5491906111ef565b6103e291905b808211156111eb57600081556001016111d7565b5090565b6103e291905b808211156111eb57600080825560018201819055600282015560038101805460ff191690556004016111f55600a165627a7a72305820c53205cb81288e03ddbbd28b7d8175801c6fb0796060fa63d95ae0895a4f66a90029d7d8e05d41376686123783ff3371c971aaf70df1bde975f3ad70c0840fbe9214a165627a7a72305820d7b7a5d007eb99e9d34cf555a71c3f387ef592516f8aa04c76d6270c63083f4f0029",
  "source": "pragma solidity ^0.4.18;\n// import \"./IGovernance.sol\";\nimport \"./ERC721.sol\";\n\ncontract FederalReserve {//is  IGovernance{\n    address private _owner;\n\n    mapping (address=>bool) private federalReserve;\n    mapping (uint256=>address) private cryptoERC20;\n    uint256[] private denominations;\n    address[] private erc20Contracts;\n\n    event onTransactionCompleted(string msgr);\n    event requestNote(address indexed _from, address indexed _to, address contractAddr);\n\n    function FederalReserve() public{\n        _owner = msg.sender;\n        // createMoneyContract(0);\n    }\n    function getName() external returns(string){\n        return \"Federal Reserve\";\n    }\n\n    function printMoney(uint256 denomination, uint256 quantity) external onlyMe{\n        if(erc20Contracts.length == 0 || cryptoERC20[denomination] == address(0)){\n            createMoneyContract(denomination);\n        }\n        ERC721 _moneyContract = ERC721(cryptoERC20[denomination]);\n        _moneyContract.printMoney(quantity);\n        onTransactionCompleted(\"printMoney\");\n    }\n\n    function createMoneyContract(uint256 denomination) internal{\n        ERC721 _moneyContract = new ERC721(denomination, _owner);\n        cryptoERC20[denomination] = _moneyContract;\n        erc20Contracts.push(_moneyContract);\n        denominations.push(denomination);\n    }\n\n    function approve(uint256 denomination, uint256[] notes, address to) external onlyMe{\n        require(this.isUserExists(msg.sender) && this.isUserExists(to));\n        ERC721 _moneyContract = ERC721(cryptoERC20[denomination]);\n        for(uint256 index = 0; index<notes.length; index++){\n            _moneyContract.approve(to, notes[index]);\n        }\n        onTransactionCompleted(\"approve\");\n    }\n\n    function tranfer(uint256 denomination, uint256[] notes, address to) external onlyMe{\n        require(this.isUserExists(msg.sender) && this.isUserExists(to));\n        ERC721 _moneyContract = ERC721(cryptoERC20[denomination]);\n        for(uint256 index = 0; index<notes.length; index++){\n            _moneyContract.transfer(to, notes[index]);\n        }\n        onTransactionCompleted(\"tranfer\");\n    }\n\n    function approveAndTransfer(uint256 denomination, uint256[] notes, address to) external{\n        require(this.isUserExists(msg.sender) && this.isUserExists(to));\n        ERC721 _moneyContract = ERC721(cryptoERC20[denomination]);\n        for(uint256 index = 0; index<notes.length; index++){\n            _moneyContract.approve(to, notes[index]);\n            _moneyContract.transfer(to, notes[index]);\n        }\n        onTransactionCompleted(\"approveAndTransfer\");\n    }\n\n    function burnMoney(uint256 denomination, uint256[] notes) external onlyMeAndUser{\n        ERC721 _moneyContract = ERC721(cryptoERC20[denomination]);\n        for(uint256 index = 0; index<notes.length; index++){\n            _moneyContract.burnMoney(notes[index]);\n        }\n        onTransactionCompleted(\"burnMoney\");\n    }\n\n    function getDenominations()external view returns(uint256[], address[]){\n        return (denominations, erc20Contracts);\n    }\n\n    function getTotalMoney(address _addr) public view returns(uint256){\n        uint256 money = 0;\n        for(uint index = 0; index<denominations.length; index++){\n            ERC721 _moneyContract = ERC721(cryptoERC20[denominations[index]]);\n            money += (_moneyContract.getDenomination()*_moneyContract.balanceOf(_addr));\n        }\n        return money;\n    }\n\n    function getPapersPrinted(address _addr) public view returns(uint256){\n        uint256 money = 0;\n        for(uint index = 0; index<denominations.length; index++){\n            ERC721 _moneyContract = ERC721(cryptoERC20[index]);\n            money += (_moneyContract.getDenomination()*_moneyContract.balanceOf(_addr));\n        }\n        return money;\n    }\n\n    function isValidNote(uint256 denomination, uint256 noteId) public  returns(bool){\n        if(cryptoERC20[denomination] == address(0)){\n            return false;\n        }\n        ERC721 _moneyContract = ERC721(cryptoERC20[denomination]);\n        return _moneyContract.isValidNote(noteId);\n    }\n    \n    function validateNote(uint256 denomination, uint256 noteId, address ownerOf) public returns(bool){\n        if(cryptoERC20[denomination] == address(0)){\n            return false;\n        }\n        if(!isValidNote(denomination, noteId)){\n            return false;\n        }\n        ERC721 _moneyContract = ERC721(cryptoERC20[denomination]);\n        return _moneyContract.ownerOf(noteId) == ownerOf;\n    }\n\n    function requestMoney(uint256 denomination, uint256 noteId, address ownerOf)public{\n        require(validateNote(denomination,noteId, ownerOf));\n        requestNote(msg.sender,ownerOf, cryptoERC20[denomination]);\n    }\n    // function getNotes(uint256 denomination, address _user)external view returns(uint256[],uint256[], address[]){\n    //     ERC721 _moneyContract = ERC721(erc20Contracts[cryptoERC20[denomination]]);\n    //     return _moneyContract.getNotes(_user);\n    // }\n\n    // function getBurnNotes(uint256 denomination, address _user)external view returns(uint256[],uint256[], address[]){\n    //     ERC721 _moneyContract = ERC721(erc20Contracts[cryptoERC20[denomination]]);\n    //     return _moneyContract.getBurntNotes(_user);        \n    // }\n\n    function addUser(address userAddess) external onlyMe{\n        federalReserve[userAddess] = true;\n    }\n\n    function isUserExists(address userAddess) external view returns(bool){\n        return federalReserve[userAddess];\n    }\n\n    modifier onlyMe(){\n        require(msg.sender == _owner);\n        _;\n    }\n\n    modifier onlyMeAndUser(){\n        require(msg.sender == _owner || this.isUserExists(msg.sender));\n        _;\n    }\n\n}",
  "sourcePath": "/Users/divum/ethindia/open-banking/contracts/FederalReserve.sol",
  "compiler": {
    "name": "solc",
    "version": "0.4.18+commit.9cf6e910.Emscripten.clang"
  },
  "schemaVersion": "1.0.1",
  "updatedAt": "2018-08-12T03:36:14.998Z"
}